{
  "_format": "hh-sol-artifact-1",
  "contractName": "LOOTToken",
  "sourceName": "contracts/LootToken.sol",
  "abi": [
    {
      "inputs": [],
      "stateMutability": "nonpayable",
      "type": "constructor"
    },
    {
      "inputs": [],
      "name": "BurnExceedsAllowance",
      "type": "error"
    },
    {
      "inputs": [
        {
          "internalType": "address",
          "name": "spender",
          "type": "address"
        },
        {
          "internalType": "uint256",
          "name": "allowance",
          "type": "uint256"
        },
        {
          "internalType": "uint256",
          "name": "needed",
          "type": "uint256"
        }
      ],
      "name": "ERC20InsufficientAllowance",
      "type": "error"
    },
    {
      "inputs": [
        {
          "internalType": "address",
          "name": "sender",
          "type": "address"
        },
        {
          "internalType": "uint256",
          "name": "balance",
          "type": "uint256"
        },
        {
          "internalType": "uint256",
          "name": "needed",
          "type": "uint256"
        }
      ],
      "name": "ERC20InsufficientBalance",
      "type": "error"
    },
    {
      "inputs": [
        {
          "internalType": "address",
          "name": "approver",
          "type": "address"
        }
      ],
      "name": "ERC20InvalidApprover",
      "type": "error"
    },
    {
      "inputs": [
        {
          "internalType": "address",
          "name": "receiver",
          "type": "address"
        }
      ],
      "name": "ERC20InvalidReceiver",
      "type": "error"
    },
    {
      "inputs": [
        {
          "internalType": "address",
          "name": "sender",
          "type": "address"
        }
      ],
      "name": "ERC20InvalidSender",
      "type": "error"
    },
    {
      "inputs": [
        {
          "internalType": "address",
          "name": "spender",
          "type": "address"
        }
      ],
      "name": "ERC20InvalidSpender",
      "type": "error"
    },
    {
      "inputs": [],
      "name": "ExceedsMaxSupply",
      "type": "error"
    },
    {
      "inputs": [
        {
          "internalType": "address",
          "name": "owner",
          "type": "address"
        }
      ],
      "name": "OwnableInvalidOwner",
      "type": "error"
    },
    {
      "inputs": [
        {
          "internalType": "address",
          "name": "account",
          "type": "address"
        }
      ],
      "name": "OwnableUnauthorizedAccount",
      "type": "error"
    },
    {
      "anonymous": false,
      "inputs": [
        {
          "indexed": true,
          "internalType": "address",
          "name": "owner",
          "type": "address"
        },
        {
          "indexed": true,
          "internalType": "address",
          "name": "spender",
          "type": "address"
        },
        {
          "indexed": false,
          "internalType": "uint256",
          "name": "value",
          "type": "uint256"
        }
      ],
      "name": "Approval",
      "type": "event"
    },
    {
      "anonymous": false,
      "inputs": [
        {
          "indexed": true,
          "internalType": "address",
          "name": "previousOwner",
          "type": "address"
        },
        {
          "indexed": true,
          "internalType": "address",
          "name": "newOwner",
          "type": "address"
        }
      ],
      "name": "OwnershipTransferred",
      "type": "event"
    },
    {
      "anonymous": false,
      "inputs": [
        {
          "indexed": true,
          "internalType": "address",
          "name": "from",
          "type": "address"
        },
        {
          "indexed": true,
          "internalType": "address",
          "name": "to",
          "type": "address"
        },
        {
          "indexed": false,
          "internalType": "uint256",
          "name": "value",
          "type": "uint256"
        }
      ],
      "name": "Transfer",
      "type": "event"
    },
    {
      "inputs": [],
      "name": "MAX_SUPPLY",
      "outputs": [
        {
          "internalType": "uint256",
          "name": "",
          "type": "uint256"
        }
      ],
      "stateMutability": "view",
      "type": "function"
    },
    {
      "inputs": [
        {
          "internalType": "address",
          "name": "owner",
          "type": "address"
        },
        {
          "internalType": "address",
          "name": "spender",
          "type": "address"
        }
      ],
      "name": "allowance",
      "outputs": [
        {
          "internalType": "uint256",
          "name": "",
          "type": "uint256"
        }
      ],
      "stateMutability": "view",
      "type": "function"
    },
    {
      "inputs": [
        {
          "internalType": "address",
          "name": "spender",
          "type": "address"
        },
        {
          "internalType": "uint256",
          "name": "value",
          "type": "uint256"
        }
      ],
      "name": "approve",
      "outputs": [
        {
          "internalType": "bool",
          "name": "",
          "type": "bool"
        }
      ],
      "stateMutability": "nonpayable",
      "type": "function"
    },
    {
      "inputs": [
        {
          "internalType": "address",
          "name": "account",
          "type": "address"
        }
      ],
      "name": "balanceOf",
      "outputs": [
        {
          "internalType": "uint256",
          "name": "",
          "type": "uint256"
        }
      ],
      "stateMutability": "view",
      "type": "function"
    },
    {
      "inputs": [
        {
          "internalType": "uint256",
          "name": "amount",
          "type": "uint256"
        }
      ],
      "name": "burn",
      "outputs": [],
      "stateMutability": "nonpayable",
      "type": "function"
    },
    {
      "inputs": [
        {
          "internalType": "address",
          "name": "account",
          "type": "address"
        },
        {
          "internalType": "uint256",
          "name": "amount",
          "type": "uint256"
        }
      ],
      "name": "burnFrom",
      "outputs": [],
      "stateMutability": "nonpayable",
      "type": "function"
    },
    {
      "inputs": [],
      "name": "decimals",
      "outputs": [
        {
          "internalType": "uint8",
          "name": "",
          "type": "uint8"
        }
      ],
      "stateMutability": "view",
      "type": "function"
    },
    {
      "inputs": [
        {
          "internalType": "address",
          "name": "to",
          "type": "address"
        },
        {
          "internalType": "uint256",
          "name": "amount",
          "type": "uint256"
        }
      ],
      "name": "mint",
      "outputs": [],
      "stateMutability": "nonpayable",
      "type": "function"
    },
    {
      "inputs": [],
      "name": "name",
      "outputs": [
        {
          "internalType": "string",
          "name": "",
          "type": "string"
        }
      ],
      "stateMutability": "view",
      "type": "function"
    },
    {
      "inputs": [],
      "name": "owner",
      "outputs": [
        {
          "internalType": "address",
          "name": "",
          "type": "address"
        }
      ],
      "stateMutability": "view",
      "type": "function"
    },
    {
      "inputs": [],
      "name": "renounceOwnership",
      "outputs": [],
      "stateMutability": "nonpayable",
      "type": "function"
    },
    {
      "inputs": [],
      "name": "symbol",
      "outputs": [
        {
          "internalType": "string",
          "name": "",
          "type": "string"
        }
      ],
      "stateMutability": "view",
      "type": "function"
    },
    {
      "inputs": [],
      "name": "totalMinted",
      "outputs": [
        {
          "internalType": "uint256",
          "name": "",
          "type": "uint256"
        }
      ],
      "stateMutability": "view",
      "type": "function"
    },
    {
      "inputs": [],
      "name": "totalSupply",
      "outputs": [
        {
          "internalType": "uint256",
          "name": "",
          "type": "uint256"
        }
      ],
      "stateMutability": "view",
      "type": "function"
    },
    {
      "inputs": [
        {
          "internalType": "address",
          "name": "to",
          "type": "address"
        },
        {
          "internalType": "uint256",
          "name": "value",
          "type": "uint256"
        }
      ],
      "name": "transfer",
      "outputs": [
        {
          "internalType": "bool",
          "name": "",
          "type": "bool"
        }
      ],
      "stateMutability": "nonpayable",
      "type": "function"
    },
    {
      "inputs": [
        {
          "internalType": "address",
          "name": "from",
          "type": "address"
        },
        {
          "internalType": "address",
          "name": "to",
          "type": "address"
        },
        {
          "internalType": "uint256",
          "name": "value",
          "type": "uint256"
        }
      ],
      "name": "transferFrom",
      "outputs": [
        {
          "internalType": "bool",
          "name": "",
          "type": "bool"
        }
      ],
      "stateMutability": "nonpayable",
      "type": "function"
    },
    {
      "inputs": [
        {
          "internalType": "address",
          "name": "newOwner",
          "type": "address"
        }
      ],
      "name": "transferOwnership",
      "outputs": [],
      "stateMutability": "nonpayable",
      "type": "function"
    }
  ],
  "bytecode": "0x608060405234801561001057600080fd5b50336040518060400160405280601381526020017f4c6f6f742050726f746f636f6c20546f6b656e00000000000000000000000000815250604051806040016040528060048152602001631313d3d560e21b81525081600390816100749190610332565b5060046100818282610332565b5050506001600160a01b0381166100b357604051631e4fbdf760e01b8152600060048201526024015b60405180910390fd5b6100bc816100dd565b506969e10de76676d080000060068190556100d7338261012f565b50610417565b600580546001600160a01b038381166001600160a01b0319831681179093556040519116919082907f8be0079c531659141344cd1fd0a4f28419497f9722a3daafe3b4186f6b6457e090600090a35050565b6001600160a01b0382166101595760405163ec442f0560e01b8152600060048201526024016100aa565b61016560008383610169565b5050565b6001600160a01b03831661019457806002600082825461018991906103f0565b909155506102069050565b6001600160a01b038316600090815260208190526040902054818110156101e75760405163391434e360e21b81526001600160a01b038516600482015260248101829052604481018390526064016100aa565b6001600160a01b03841660009081526020819052604090209082900390555b6001600160a01b03821661022257600280548290039055610241565b6001600160a01b03821660009081526020819052604090208054820190555b816001600160a01b0316836001600160a01b03167fddf252ad1be2c89b69c2b068fc378daa952ba7f163c4a11628f55a4df523b3ef8360405161028691815260200190565b60405180910390a3505050565b634e487b7160e01b600052604160045260246000fd5b600181811c908216806102bd57607f821691505b6020821081036102dd57634e487b7160e01b600052602260045260246000fd5b50919050565b601f82111561032d57806000526020600020601f840160051c8101602085101561030a5750805b601f840160051c820191505b8181101561032a5760008155600101610316565b50505b505050565b81516001600160401b0381111561034b5761034b610293565b61035f8161035984546102a9565b846102e3565b6020601f821160018114610393576000831561037b5750848201515b600019600385901b1c1916600184901b17845561032a565b600084815260208120601f198516915b828110156103c357878501518255602094850194600190920191016103a3565b50848210156103e15786840151600019600387901b60f8161c191681555b50505050600190811b01905550565b8082018082111561041157634e487b7160e01b600052601160045260246000fd5b92915050565b610a40806104266000396000f3fe608060405234801561001057600080fd5b506004361061010b5760003560e01c806370a08231116100a257806395d89b411161007157806395d89b411461021d578063a2309ff814610225578063a9059cbb1461022e578063dd62ed3e14610241578063f2fde38b1461025457600080fd5b806370a08231146101be578063715018a6146101e757806379cc6790146101ef5780638da5cb5b1461020257600080fd5b8063313ce567116100de578063313ce5671461017657806332cb6b0c1461018557806340c10f191461019657806342966c68146101ab57600080fd5b806306fdde0314610110578063095ea7b31461012e57806318160ddd1461015157806323b872dd14610163575b600080fd5b610118610267565b6040516101259190610855565b60405180910390f35b61014161013c3660046108bf565b6102f9565b6040519015158152602001610125565b6002545b604051908152602001610125565b6101416101713660046108e9565b610313565b60405160128152602001610125565b61015569d3c21bcecceda100000081565b6101a96101a43660046108bf565b610337565b005b6101a96101b9366004610926565b61039d565b6101556101cc36600461093f565b6001600160a01b031660009081526020819052604090205490565b6101a96103aa565b6101a96101fd3660046108bf565b6103be565b6005546040516001600160a01b039091168152602001610125565b610118610410565b61015560065481565b61014161023c3660046108bf565b61041f565b61015561024f366004610961565b61042d565b6101a961026236600461093f565b610458565b60606003805461027690610994565b80601f01602080910402602001604051908101604052809291908181526020018280546102a290610994565b80156102ef5780601f106102c4576101008083540402835291602001916102ef565b820191906000526020600020905b8154815290600101906020018083116102d257829003601f168201915b5050505050905090565b600033610307818585610498565b60019150505b92915050565b6000336103218582856104a5565b61032c85858561050c565b506001949350505050565b61033f61056b565b69d3c21bcecceda10000008160065461035891906109e4565b11156103775760405163c30436e960e01b815260040160405180910390fd5b806006600082825461038991906109e4565b9091555061039990508282610598565b5050565b6103a733826105ce565b50565b6103b261056b565b6103bc6000610604565b565b60006103ca833361042d565b9050818110156103ed576040516307df453760e01b815260040160405180910390fd5b61040183336103fc85856109f7565b610498565b61040b83836105ce565b505050565b60606004805461027690610994565b60003361030781858561050c565b6001600160a01b03918216600090815260016020908152604080832093909416825291909152205490565b61046061056b565b6001600160a01b03811661048f57604051631e4fbdf760e01b8152600060048201526024015b60405180910390fd5b6103a781610604565b61040b8383836001610656565b60006104b1848461042d565b905060001981101561050657818110156104f757604051637dc7a0d960e11b81526001600160a01b03841660048201526024810182905260448101839052606401610486565b61050684848484036000610656565b50505050565b6001600160a01b03831661053657604051634b637e8f60e11b815260006004820152602401610486565b6001600160a01b0382166105605760405163ec442f0560e01b815260006004820152602401610486565b61040b83838361072b565b6005546001600160a01b031633146103bc5760405163118cdaa760e01b8152336004820152602401610486565b6001600160a01b0382166105c25760405163ec442f0560e01b815260006004820152602401610486565b6103996000838361072b565b6001600160a01b0382166105f857604051634b637e8f60e11b815260006004820152602401610486565b6103998260008361072b565b600580546001600160a01b038381166001600160a01b0319831681179093556040519116919082907f8be0079c531659141344cd1fd0a4f28419497f9722a3daafe3b4186f6b6457e090600090a35050565b6001600160a01b0384166106805760405163e602df0560e01b815260006004820152602401610486565b6001600160a01b0383166106aa57604051634a1406b160e11b815260006004820152602401610486565b6001600160a01b038085166000908152600160209081526040808320938716835292905220829055801561050657826001600160a01b0316846001600160a01b03167f8c5be1e5ebec7d5bd14f71427d1e84f3dd0314c0f7b2291e5b200ac8c7c3b9258460405161071d91815260200190565b60405180910390a350505050565b6001600160a01b03831661075657806002600082825461074b91906109e4565b909155506107c89050565b6001600160a01b038316600090815260208190526040902054818110156107a95760405163391434e360e21b81526001600160a01b03851660048201526024810182905260448101839052606401610486565b6001600160a01b03841660009081526020819052604090209082900390555b6001600160a01b0382166107e457600280548290039055610803565b6001600160a01b03821660009081526020819052604090208054820190555b816001600160a01b0316836001600160a01b03167fddf252ad1be2c89b69c2b068fc378daa952ba7f163c4a11628f55a4df523b3ef8360405161084891815260200190565b60405180910390a3505050565b602081526000825180602084015260005b818110156108835760208186018101516040868401015201610866565b506000604082850101526040601f19601f83011684010191505092915050565b80356001600160a01b03811681146108ba57600080fd5b919050565b600080604083850312156108d257600080fd5b6108db836108a3565b946020939093013593505050565b6000806000606084860312156108fe57600080fd5b610907846108a3565b9250610915602085016108a3565b929592945050506040919091013590565b60006020828403121561093857600080fd5b5035919050565b60006020828403121561095157600080fd5b61095a826108a3565b9392505050565b6000806040838503121561097457600080fd5b61097d836108a3565b915061098b602084016108a3565b90509250929050565b600181811c908216806109a857607f821691505b6020821081036109c857634e487b7160e01b600052602260045260246000fd5b50919050565b634e487b7160e01b600052601160045260246000fd5b8082018082111561030d5761030d6109ce565b8181038181111561030d5761030d6109ce56fea26469706673582212207c1d702d7b052eed3e1bdd324738ab6d2dc27def8bda0ab98ce26f69643b156b64736f6c634300081c0033",
  "linkReferences": {},
  "deployedLinkReferences": {}
}