{
  "_format": "hh-sol-artifact-1",
  "contractName": "LootBox",
  "sourceName": "contracts/LootBox.sol",
  "abi": [
    {
      "inputs": [
        {
          "internalType": "address",
          "name": "_vrfCoordinator",
          "type": "address"
        },
        {
          "internalType": "address",
          "name": "_ethUsdFeed",
          "type": "address"
        },
        {
          "internalType": "address",
          "name": "_lootUsdFeed",
          "type": "address"
        },
        {
          "internalType": "address",
          "name": "_lootToken",
          "type": "address"
        },
        {
          "internalType": "address",
          "name": "_usdcToken",
          "type": "address"
        }
      ],
      "stateMutability": "nonpayable",
      "type": "constructor"
    },
    {
      "inputs": [],
      "name": "ArrayLengthMismatch",
      "type": "error"
    },
    {
      "inputs": [],
      "name": "CallerNotLootBox",
      "type": "error"
    },
    {
      "inputs": [],
      "name": "ETHTransferFailed",
      "type": "error"
    },
    {
      "inputs": [],
      "name": "IncompleteFeedAnswer",
      "type": "error"
    },
    {
      "inputs": [
        {
          "internalType": "uint256",
          "name": "expected",
          "type": "uint256"
        },
        {
          "internalType": "uint256",
          "name": "sent",
          "type": "uint256"
        }
      ],
      "name": "InsufficientETH",
      "type": "error"
    },
    {
      "inputs": [],
      "name": "InvalidFeedPrice",
      "type": "error"
    },
    {
      "inputs": [],
      "name": "InvalidKeyHash",
      "type": "error"
    },
    {
      "inputs": [
        {
          "internalType": "uint256",
          "name": "amount",
          "type": "uint256"
        }
      ],
      "name": "InvalidPackAmount",
      "type": "error"
    },
    {
      "inputs": [],
      "name": "InvalidSubscriptionID",
      "type": "error"
    },
    {
      "inputs": [],
      "name": "InvalidXPAmount",
      "type": "error"
    },
    {
      "inputs": [
        {
          "internalType": "address",
          "name": "have",
          "type": "address"
        },
        {
          "internalType": "address",
          "name": "want",
          "type": "address"
        }
      ],
      "name": "OnlyCoordinatorCanFulfill",
      "type": "error"
    },
    {
      "inputs": [
        {
          "internalType": "address",
          "name": "have",
          "type": "address"
        },
        {
          "internalType": "address",
          "name": "owner",
          "type": "address"
        },
        {
          "internalType": "address",
          "name": "coordinator",
          "type": "address"
        }
      ],
      "name": "OnlyOwnerOrCoordinator",
      "type": "error"
    },
    {
      "inputs": [],
      "name": "PackNameEmpty",
      "type": "error"
    },
    {
      "inputs": [],
      "name": "PackNotExisting",
      "type": "error"
    },
    {
      "inputs": [],
      "name": "StaleFeedPrice",
      "type": "error"
    },
    {
      "inputs": [],
      "name": "ZeroAddress",
      "type": "error"
    },
    {
      "inputs": [],
      "name": "ZeroAddressNotAllowed",
      "type": "error"
    },
    {
      "anonymous": false,
      "inputs": [
        {
          "indexed": false,
          "internalType": "address",
          "name": "vrfCoordinator",
          "type": "address"
        }
      ],
      "name": "CoordinatorSet",
      "type": "event"
    },
    {
      "anonymous": false,
      "inputs": [
        {
          "indexed": false,
          "internalType": "address",
          "name": "priceFeed",
          "type": "address"
        }
      ],
      "name": "EthUsdPriceFeedUpdated",
      "type": "event"
    },
    {
      "anonymous": false,
      "inputs": [
        {
          "indexed": false,
          "internalType": "bytes32",
          "name": "oldKeyHash",
          "type": "bytes32"
        },
        {
          "indexed": false,
          "internalType": "bytes32",
          "name": "newKeyHash",
          "type": "bytes32"
        }
      ],
      "name": "KeyHashUpdated",
      "type": "event"
    },
    {
      "anonymous": false,
      "inputs": [
        {
          "indexed": false,
          "internalType": "address",
          "name": "priceFeed",
          "type": "address"
        }
      ],
      "name": "LootUsdPriceFeedUpdated",
      "type": "event"
    },
    {
      "anonymous": false,
      "inputs": [
        {
          "indexed": true,
          "internalType": "address",
          "name": "from",
          "type": "address"
        },
        {
          "indexed": true,
          "internalType": "address",
          "name": "to",
          "type": "address"
        }
      ],
      "name": "OwnershipTransferRequested",
      "type": "event"
    },
    {
      "anonymous": false,
      "inputs": [
        {
          "indexed": true,
          "internalType": "address",
          "name": "from",
          "type": "address"
        },
        {
          "indexed": true,
          "internalType": "address",
          "name": "to",
          "type": "address"
        }
      ],
      "name": "OwnershipTransferred",
      "type": "event"
    },
    {
      "anonymous": false,
      "inputs": [
        {
          "indexed": false,
          "internalType": "string",
          "name": "packName",
          "type": "string"
        },
        {
          "indexed": false,
          "internalType": "uint256",
          "name": "priceUSDC",
          "type": "uint256"
        }
      ],
      "name": "PackAdded",
      "type": "event"
    },
    {
      "anonymous": false,
      "inputs": [
        {
          "indexed": false,
          "internalType": "string",
          "name": "packName",
          "type": "string"
        }
      ],
      "name": "PackDeleted",
      "type": "event"
    },
    {
      "anonymous": false,
      "inputs": [
        {
          "indexed": true,
          "internalType": "address",
          "name": "user",
          "type": "address"
        },
        {
          "indexed": false,
          "internalType": "string",
          "name": "packName",
          "type": "string"
        },
        {
          "indexed": false,
          "internalType": "uint256",
          "name": "amount",
          "type": "uint256"
        },
        {
          "indexed": false,
          "internalType": "uint256",
          "name": "priceUSD",
          "type": "uint256"
        },
        {
          "indexed": false,
          "internalType": "enum ILootBox.PaymentToken",
          "name": "paymentToken",
          "type": "uint8"
        }
      ],
      "name": "PackPurchased",
      "type": "event"
    },
    {
      "anonymous": false,
      "inputs": [
        {
          "indexed": false,
          "internalType": "string",
          "name": "packName",
          "type": "string"
        },
        {
          "indexed": false,
          "internalType": "uint256",
          "name": "priceUSDC",
          "type": "uint256"
        }
      ],
      "name": "PackUpdated",
      "type": "event"
    },
    {
      "anonymous": false,
      "inputs": [
        {
          "indexed": true,
          "internalType": "uint256",
          "name": "requestId",
          "type": "uint256"
        },
        {
          "indexed": true,
          "internalType": "address",
          "name": "user",
          "type": "address"
        }
      ],
      "name": "RandomnessRequested",
      "type": "event"
    },
    {
      "anonymous": false,
      "inputs": [
        {
          "indexed": true,
          "internalType": "address",
          "name": "user",
          "type": "address"
        },
        {
          "indexed": false,
          "internalType": "uint256",
          "name": "rewardType",
          "type": "uint256"
        },
        {
          "indexed": false,
          "internalType": "uint256",
          "name": "rewardValue",
          "type": "uint256"
        }
      ],
      "name": "RewardMinted",
      "type": "event"
    },
    {
      "anonymous": false,
      "inputs": [
        {
          "indexed": false,
          "internalType": "uint256",
          "name": "oldId",
          "type": "uint256"
        },
        {
          "indexed": false,
          "internalType": "uint256",
          "name": "newId",
          "type": "uint256"
        }
      ],
      "name": "SubscriptionIdUpdated",
      "type": "event"
    },
    {
      "anonymous": false,
      "inputs": [
        {
          "indexed": false,
          "internalType": "address",
          "name": "lootBox",
          "type": "address"
        }
      ],
      "name": "XPModuleUpdated",
      "type": "event"
    },
    {
      "inputs": [],
      "name": "CALLBACK_GAS_LIMIT",
      "outputs": [
        {
          "internalType": "uint32",
          "name": "",
          "type": "uint32"
        }
      ],
      "stateMutability": "view",
      "type": "function"
    },
    {
      "inputs": [],
      "name": "ERC20_SCALING_FACTOR",
      "outputs": [
        {
          "internalType": "uint256",
          "name": "",
          "type": "uint256"
        }
      ],
      "stateMutability": "view",
      "type": "function"
    },
    {
      "inputs": [],
      "name": "REQUEST_CONFIRMATIONS",
      "outputs": [
        {
          "internalType": "uint16",
          "name": "",
          "type": "uint16"
        }
      ],
      "stateMutability": "view",
      "type": "function"
    },
    {
      "inputs": [],
      "name": "STALE_PRICE_DELAY",
      "outputs": [
        {
          "internalType": "uint256",
          "name": "",
          "type": "uint256"
        }
      ],
      "stateMutability": "view",
      "type": "function"
    },
    {
      "inputs": [],
      "name": "acceptOwnership",
      "outputs": [],
      "stateMutability": "nonpayable",
      "type": "function"
    },
    {
      "inputs": [
        {
          "internalType": "string",
          "name": "packName",
          "type": "string"
        },
        {
          "internalType": "uint256",
          "name": "priceUSDC",
          "type": "uint256"
        },
        {
          "internalType": "uint256[]",
          "name": "rewardWeights",
          "type": "uint256[]"
        },
        {
          "internalType": "uint256[]",
          "name": "rewardTypes",
          "type": "uint256[]"
        },
        {
          "internalType": "uint256[]",
          "name": "rewardValues",
          "type": "uint256[]"
        }
      ],
      "name": "addOrUpdatePackType",
      "outputs": [],
      "stateMutability": "nonpayable",
      "type": "function"
    },
    {
      "inputs": [
        {
          "internalType": "string",
          "name": "packName",
          "type": "string"
        }
      ],
      "name": "deletePackType",
      "outputs": [],
      "stateMutability": "nonpayable",
      "type": "function"
    },
    {
      "inputs": [],
      "name": "ethUsdPriceFeed",
      "outputs": [
        {
          "internalType": "contract AggregatorV3Interface",
          "name": "",
          "type": "address"
        }
      ],
      "stateMutability": "view",
      "type": "function"
    },
    {
      "inputs": [],
      "name": "getAllPacks",
      "outputs": [
        {
          "internalType": "string[]",
          "name": "names",
          "type": "string[]"
        },
        {
          "internalType": "uint256[]",
          "name": "prices",
          "type": "uint256[]"
        },
        {
          "internalType": "uint256[][]",
          "name": "rewardTypes",
          "type": "uint256[][]"
        },
        {
          "internalType": "uint256[][]",
          "name": "rewardWeights",
          "type": "uint256[][]"
        },
        {
          "internalType": "uint256[][]",
          "name": "rewardValues",
          "type": "uint256[][]"
        }
      ],
      "stateMutability": "view",
      "type": "function"
    },
    {
      "inputs": [],
      "name": "getPackCount",
      "outputs": [
        {
          "internalType": "uint256",
          "name": "",
          "type": "uint256"
        }
      ],
      "stateMutability": "view",
      "type": "function"
    },
    {
      "inputs": [
        {
          "internalType": "string",
          "name": "packName",
          "type": "string"
        }
      ],
      "name": "getPackType",
      "outputs": [
        {
          "internalType": "uint256",
          "name": "priceUSDC",
          "type": "uint256"
        },
        {
          "internalType": "uint256[]",
          "name": "rewardTypes",
          "type": "uint256[]"
        },
        {
          "internalType": "uint256[]",
          "name": "rewardWeights",
          "type": "uint256[]"
        },
        {
          "internalType": "uint256[]",
          "name": "rewardValues",
          "type": "uint256[]"
        }
      ],
      "stateMutability": "view",
      "type": "function"
    },
    {
      "inputs": [],
      "name": "keyHash",
      "outputs": [
        {
          "internalType": "bytes32",
          "name": "",
          "type": "bytes32"
        }
      ],
      "stateMutability": "view",
      "type": "function"
    },
    {
      "inputs": [],
      "name": "lootToken",
      "outputs": [
        {
          "internalType": "contract IERC20",
          "name": "",
          "type": "address"
        }
      ],
      "stateMutability": "view",
      "type": "function"
    },
    {
      "inputs": [],
      "name": "lootUsdPriceFeed",
      "outputs": [
        {
          "internalType": "contract AggregatorV3Interface",
          "name": "",
          "type": "address"
        }
      ],
      "stateMutability": "view",
      "type": "function"
    },
    {
      "inputs": [],
      "name": "owner",
      "outputs": [
        {
          "internalType": "address",
          "name": "",
          "type": "address"
        }
      ],
      "stateMutability": "view",
      "type": "function"
    },
    {
      "inputs": [
        {
          "internalType": "string",
          "name": "",
          "type": "string"
        }
      ],
      "name": "packExists",
      "outputs": [
        {
          "internalType": "bool",
          "name": "",
          "type": "bool"
        }
      ],
      "stateMutability": "view",
      "type": "function"
    },
    {
      "inputs": [
        {
          "internalType": "uint256",
          "name": "",
          "type": "uint256"
        }
      ],
      "name": "packNames",
      "outputs": [
        {
          "internalType": "string",
          "name": "",
          "type": "string"
        }
      ],
      "stateMutability": "view",
      "type": "function"
    },
    {
      "inputs": [
        {
          "internalType": "string",
          "name": "",
          "type": "string"
        }
      ],
      "name": "packTypes",
      "outputs": [
        {
          "internalType": "uint256",
          "name": "priceUSDC",
          "type": "uint256"
        }
      ],
      "stateMutability": "view",
      "type": "function"
    },
    {
      "inputs": [
        {
          "internalType": "string",
          "name": "packName",
          "type": "string"
        },
        {
          "internalType": "uint256",
          "name": "amount",
          "type": "uint256"
        },
        {
          "internalType": "enum ILootBox.PaymentToken",
          "name": "paymentToken",
          "type": "uint8"
        }
      ],
      "name": "purchasePack",
      "outputs": [],
      "stateMutability": "payable",
      "type": "function"
    },
    {
      "inputs": [
        {
          "internalType": "uint256",
          "name": "requestId",
          "type": "uint256"
        },
        {
          "internalType": "uint256[]",
          "name": "randomWords",
          "type": "uint256[]"
        }
      ],
      "name": "rawFulfillRandomWords",
      "outputs": [],
      "stateMutability": "nonpayable",
      "type": "function"
    },
    {
      "inputs": [
        {
          "internalType": "uint256",
          "name": "",
          "type": "uint256"
        }
      ],
      "name": "requestIdToAmount",
      "outputs": [
        {
          "internalType": "uint256",
          "name": "",
          "type": "uint256"
        }
      ],
      "stateMutability": "view",
      "type": "function"
    },
    {
      "inputs": [
        {
          "internalType": "uint256",
          "name": "",
          "type": "uint256"
        }
      ],
      "name": "requestIdToPackType",
      "outputs": [
        {
          "internalType": "string",
          "name": "",
          "type": "string"
        }
      ],
      "stateMutability": "view",
      "type": "function"
    },
    {
      "inputs": [
        {
          "internalType": "uint256",
          "name": "",
          "type": "uint256"
        }
      ],
      "name": "requestIdToSender",
      "outputs": [
        {
          "internalType": "address",
          "name": "",
          "type": "address"
        }
      ],
      "stateMutability": "view",
      "type": "function"
    },
    {
      "inputs": [],
      "name": "rewardNFT",
      "outputs": [
        {
          "internalType": "contract RewardNFT",
          "name": "",
          "type": "address"
        }
      ],
      "stateMutability": "view",
      "type": "function"
    },
    {
      "inputs": [],
      "name": "s_vrfCoordinator",
      "outputs": [
        {
          "internalType": "contract IVRFCoordinatorV2Plus",
          "name": "",
          "type": "address"
        }
      ],
      "stateMutability": "view",
      "type": "function"
    },
    {
      "inputs": [
        {
          "internalType": "address",
          "name": "_vrfCoordinator",
          "type": "address"
        }
      ],
      "name": "setCoordinator",
      "outputs": [],
      "stateMutability": "nonpayable",
      "type": "function"
    },
    {
      "inputs": [
        {
          "internalType": "address",
          "name": "feed",
          "type": "address"
        }
      ],
      "name": "setEthUsdPriceFeed",
      "outputs": [],
      "stateMutability": "nonpayable",
      "type": "function"
    },
    {
      "inputs": [
        {
          "internalType": "bytes32",
          "name": "newKeyHash",
          "type": "bytes32"
        }
      ],
      "name": "setKeyHash",
      "outputs": [],
      "stateMutability": "nonpayable",
      "type": "function"
    },
    {
      "inputs": [
        {
          "internalType": "address",
          "name": "feed",
          "type": "address"
        }
      ],
      "name": "setLootUsdPriceFeed",
      "outputs": [],
      "stateMutability": "nonpayable",
      "type": "function"
    },
    {
      "inputs": [
        {
          "internalType": "address",
          "name": "_rewardNFT",
          "type": "address"
        }
      ],
      "name": "setRewardNFT",
      "outputs": [],
      "stateMutability": "nonpayable",
      "type": "function"
    },
    {
      "inputs": [
        {
          "internalType": "uint256",
          "name": "newId",
          "type": "uint256"
        }
      ],
      "name": "setSubscriptionId",
      "outputs": [],
      "stateMutability": "nonpayable",
      "type": "function"
    },
    {
      "inputs": [
        {
          "internalType": "address",
          "name": "_xpModule",
          "type": "address"
        }
      ],
      "name": "setXPModule",
      "outputs": [],
      "stateMutability": "nonpayable",
      "type": "function"
    },
    {
      "inputs": [],
      "name": "subscriptionId",
      "outputs": [
        {
          "internalType": "uint256",
          "name": "",
          "type": "uint256"
        }
      ],
      "stateMutability": "view",
      "type": "function"
    },
    {
      "inputs": [
        {
          "internalType": "address",
          "name": "to",
          "type": "address"
        }
      ],
      "name": "transferOwnership",
      "outputs": [],
      "stateMutability": "nonpayable",
      "type": "function"
    },
    {
      "inputs": [],
      "name": "usdcToken",
      "outputs": [
        {
          "internalType": "contract IERC20",
          "name": "",
          "type": "address"
        }
      ],
      "stateMutability": "view",
      "type": "function"
    },
    {
      "inputs": [],
      "name": "vrfCoordinator",
      "outputs": [
        {
          "internalType": "address",
          "name": "",
          "type": "address"
        }
      ],
      "stateMutability": "view",
      "type": "function"
    },
    {
      "inputs": [
        {
          "internalType": "address",
          "name": "token",
          "type": "address"
        },
        {
          "internalType": "address",
          "name": "recipient",
          "type": "address"
        }
      ],
      "name": "withdrawERC20",
      "outputs": [],
      "stateMutability": "nonpayable",
      "type": "function"
    },
    {
      "inputs": [
        {
          "internalType": "address payable",
          "name": "recipient",
          "type": "address"
        }
      ],
      "name": "withdrawETH",
      "outputs": [],
      "stateMutability": "nonpayable",
      "type": "function"
    },
    {
      "inputs": [
        {
          "internalType": "address",
          "name": "",
          "type": "address"
        }
      ],
      "name": "xpBalances",
      "outputs": [
        {
          "internalType": "uint256",
          "name": "",
          "type": "uint256"
        }
      ],
      "stateMutability": "view",
      "type": "function"
    },
    {
      "inputs": [],
      "name": "xpModule",
      "outputs": [
        {
          "internalType": "contract IXPModule",
          "name": "",
          "type": "address"
        }
      ],
      "stateMutability": "view",
      "type": "function"
    }
  ],
  "bytecode": "0x60c060405234801561001057600080fd5b5060405161311b38038061311b83398101604081905261002f91610200565b8433806000816100865760405162461bcd60e51b815260206004820152601860248201527f43616e6e6f7420736574206f776e657220746f207a65726f000000000000000060448201526064015b60405180910390fd5b600080546001600160a01b0319166001600160a01b03848116919091179091558116156100b6576100b68161013b565b5050506001600160a01b0381166100e05760405163d92e233d60e01b815260040160405180910390fd5b600280546001600160a01b03199081166001600160a01b03938416179091559581166080526005805487169582169590951790945560068054861693851693909317909255821660a052600780549093169116179055610265565b336001600160a01b038216036101935760405162461bcd60e51b815260206004820152601760248201527f43616e6e6f74207472616e7366657220746f2073656c66000000000000000000604482015260640161007d565b600180546001600160a01b0319166001600160a01b0383811691821790925560008054604051929316917fed8889f560326eb138920d842192f0eb3dd22b4f139c87a2c57538e05bae12789190a350565b80516001600160a01b03811681146101fb57600080fd5b919050565b600080600080600060a0868803121561021857600080fd5b610221866101e4565b945061022f602087016101e4565b935061023d604087016101e4565b925061024b606087016101e4565b9150610259608087016101e4565b90509295509295909350565b60805160a051612e83610298600039600081816107d701528181610dde0152611e91015260006106930152612e836000f3fe60806040526004361061023b5760003560e01c80638ea981171161012e578063a3e56fa8116100ab578063e293dcbf1161006f578063e293dcbf14610735578063e4ba35a614610755578063f0b9c66014610775578063f2fde38b146107a5578063f460124d146107c557600080fd5b8063a3e56fa814610681578063c0806288146106b5578063c1e0d236146106d5578063c8ea4dd6146106f5578063ca21c55b1461071557600080fd5b806398544710116100f257806398544710146105d15780639859ad0e146105f15780639bea733d146106175780639e8d2ff3146106445780639eccacf61461066157600080fd5b80638ea98117146105195780638fff4ffb14610539578063902f778c1461057157806390e2bc0e146105915780639456fbcc146105b157600080fd5b80634527503c116101bc5780636cc345cc116101805780636cc345cc1461045257806379ba50971461049d578063839b5d36146104b25780638da5cb5b146104c55780638e2de4d3146104e357600080fd5b80634527503c146103bf57806349dca657146103d457806361728f39146103f457806367f082b01461040a578063690d83201461043257600080fd5b806333d608f11161020357806333d608f11461030657806334b6c4c5146103325780633d8ade5e1461035f57806341667dd31461037f57806342f6fb291461039f57600080fd5b80630683f5fe1461024057806309c1ba2e1461026957806311eac8551461027f5780631fe543e3146102b757806329f1eba3146102d9575b600080fd5b34801561024c57600080fd5b50610256610e1081565b6040519081526020015b60405180910390f35b34801561027557600080fd5b5061025660035481565b34801561028b57600080fd5b5060075461029f906001600160a01b031681565b6040516001600160a01b039091168152602001610260565b3480156102c357600080fd5b506102d76102d23660046123b4565b6107f9565b005b3480156102e557600080fd5b506102566102f4366004612448565b600e6020526000908152604090205481565b34801561031257600080fd5b5061031d620186a081565b60405163ffffffff9091168152602001610260565b34801561033e57600080fd5b5061035261034d366004612465565b61084e565b60405161026091906124ce565b34801561036b57600080fd5b5060085461029f906001600160a01b031681565b34801561038b57600080fd5b506102d761039a366004612618565b6108fa565b3480156103ab57600080fd5b5060055461029f906001600160a01b031681565b3480156103cb57600080fd5b50600f54610256565b3480156103e057600080fd5b506102d76103ef366004612448565b610af0565b34801561040057600080fd5b5061025660045481565b34801561041657600080fd5b5061041f600381565b60405161ffff9091168152602001610260565b34801561043e57600080fd5b506102d761044d366004612448565b610b74565b34801561045e57600080fd5b5061048d61046d3660046126de565b805160208183018101805160108252928201919093012091525460ff1681565b6040519015158152602001610260565b3480156104a957600080fd5b506102d7610bf4565b6102d76104c036600461271a565b610c9e565b3480156104d157600080fd5b506000546001600160a01b031661029f565b3480156104ef57600080fd5b5061029f6104fe366004612465565b600b602052600090815260409020546001600160a01b031681565b34801561052557600080fd5b506102d7610534366004612448565b611125565b34801561054557600080fd5b506102566105543660046126de565b8051602081830181018051600a8252928201919093012091525481565b34801561057d57600080fd5b5061035261058c366004612465565b611211565b34801561059d57600080fd5b506102d76105ac366004612448565b61122a565b3480156105bd57600080fd5b506102d76105cc366004612778565b6112c8565b3480156105dd57600080fd5b506102d76105ec366004612465565b6113b8565b3480156105fd57600080fd5b50610606611424565b604051610260959493929190612849565b34801561062357600080fd5b50610256610632366004612465565b600d6020526000908152604090205481565b34801561065057600080fd5b5061025668056bc75e2d6310000081565b34801561066d57600080fd5b5060025461029f906001600160a01b031681565b34801561068d57600080fd5b5061029f7f000000000000000000000000000000000000000000000000000000000000000081565b3480156106c157600080fd5b506102d76106d0366004612448565b611811565b3480156106e157600080fd5b506102d76106f0366004612465565b61183b565b34801561070157600080fd5b5060095461029f906001600160a01b031681565b34801561072157600080fd5b506102d76107303660046126de565b6118a2565b34801561074157600080fd5b506102d7610750366004612448565b611a8c565b34801561076157600080fd5b5060065461029f906001600160a01b031681565b34801561078157600080fd5b506107956107903660046126de565b611b2a565b6040516102609493929190612900565b3480156107b157600080fd5b506102d76107c0366004612448565b611c6a565b3480156107d157600080fd5b5061029f7f000000000000000000000000000000000000000000000000000000000000000081565b6002546001600160a01b0316331461083e5760025460405163073e64fd60e21b81523360048201526001600160a01b0390911660248201526044015b60405180910390fd5b610849838383611c7e565b505050565b600f818154811061085e57600080fd5b9060005260206000200160009150905080546108799061294a565b80601f01602080910402602001604051908101604052809291908181526020018280546108a59061294a565b80156108f25780601f106108c7576101008083540402835291602001916108f2565b820191906000526020600020905b8154815290600101906020018083116108d557829003601f168201915b505050505081565b610902611fe6565b815183511415801561091657508051825114155b156109345760405163512509d360e11b815260040160405180910390fd5b60006010866040516109469190612984565b9081526040519081900360200190205460ff161590508015610a0e57600f80546001810182556000919091527f8d1108e10bcb7c27dddfc02ed9d693a074039d026cf4ea4240b40f7d581ac8020161099e87826129ee565b5060016010876040516109b19190612984565b908152604051908190036020018120805492151560ff19909316929092179091557f15c8edc0be270a70c94810713bd8e654fd99cb49a62435f78c23a20503ffb16d90610a019088908890612aaf565b60405180910390a1610a48565b7ff652220c04335143585c724441490ee0d7378cbc1f97a4e2ec09fdfd0ccc65608686604051610a3f929190612aaf565b60405180910390a15b604051806080016040528086815260200185815260200184815260200183815250600a87604051610a799190612984565b9081526020016040518091039020600082015181600001556020820151816001019080519060200190610aad929190612300565b5060408201518051610ac9916002840191602090910190612300565b5060608201518051610ae5916003840191602090910190612300565b505050505050505050565b610af8611fe6565b6001600160a01b038116610b1f576040516342bcdf7f60e11b815260040160405180910390fd5b600880546001600160a01b0319166001600160a01b0383169081179091556040519081527f8cbabad384f491e703e544afe6ad8be63f9eafcdd2c13ebdc3773ece8e59cae4906020015b60405180910390a150565b610b7c611fe6565b6000816001600160a01b03164760405160006040518083038185875af1925050503d8060008114610bc9576040519150601f19603f3d011682016040523d82523d6000602084013e610bce565b606091505b5050905080610bf05760405163b12d13eb60e01b815260040160405180910390fd5b5050565b6001546001600160a01b03163314610c475760405162461bcd60e51b815260206004820152601660248201527526bab9ba10313290383937b837b9b2b21037bbb732b960511b6044820152606401610835565b60008054336001600160a01b0319808316821784556001805490911690556040516001600160a01b0390921692909183917f8be0079c531659141344cd1fd0a4f28419497f9722a3daafe3b4186f6b6457e091a350565b811580610cab5750600a82115b15610ccc57604051633ce26c2160e11b815260048101839052602401610835565b6000600a84604051610cde9190612984565b908152602001604051809103902090508060000154600003610d13576040516304c421fb60e11b815260040160405180910390fd5b8054600090610d23908590612ae7565b90506000610d308561203b565b90506064610d3e8284612ae7565b610d489190612b14565b610d529083612b28565b91506000846002811115610d6857610d68612b3b565b03610e5c5760006064610d7c84600a612ae7565b610d869190612b14565b9050610d928184612b28565b9250630bebc200600081610daf68056bc75e2d6310000087612ae7565b610db99190612b14565b6040516323b872dd60e01b8152336004820152306024820152604481018290529091507f00000000000000000000000000000000000000000000000000000000000000006001600160a01b0316906323b872dd906064016020604051808303816000875af1158015610e2f573d6000803e3d6000fd5b505050506040513d601f19601f82011682018060405250810190610e539190612b51565b50505050610f9e565b6002846002811115610e7057610e70612b3b565b03610f2157600554600090610e8d906001600160a01b031661208b565b9050600081610ea568056bc75e2d6310000086612ae7565b610eaf9190612b14565b905080341015610eda5760405162fdf57560e51b815260048101829052346024820152604401610835565b80341115610f1a57336108fc610ef08334612b28565b6040518115909202916000818181858888f19350505050158015610f18573d6000803e3d6000fd5b505b5050610f9e565b6007546040516323b872dd60e01b8152336004820152306024820152604481018490526001600160a01b03909116906323b872dd906064016020604051808303816000875af1158015610f78573d6000803e3d6000fd5b505050506040513d601f19601f82011682018060405250810190610f9c9190612b51565b505b6002546040805160c08101825260045481526003805460208084019190915282840191909152620186a0606083015263ffffffff8916608083015282519081019092526000808352926001600160a01b031691639b1c385e919060a08201906110069061218e565b8152506040518263ffffffff1660e01b81526004016110259190612b73565b6020604051808303816000875af1158015611044573d6000803e3d6000fd5b505050506040513d601f19601f820116820180604052508101906110689190612bd0565b6000818152600b6020908152604080832080546001600160a01b03191633179055600c909152902090915061109d88826129ee565b506000818152600d6020526040908190208790555133907f444f10566fae1233f6b992a22975006d58e62b156707beca1d518fd324e06052906110e7908a908a9088908b90612be9565b60405180910390a2604051339082907f28f521cf7abd0044cba5bb040c5217ff69a4e5865f5262905018698e68fe7d0090600090a350505050505050565b6000546001600160a01b0316331480159061114b57506002546001600160a01b03163314155b1561119c57336111636000546001600160a01b031690565b60025460405163061db9c160e01b81526001600160a01b0393841660048201529183166024830152919091166044820152606401610835565b6001600160a01b0381166111c35760405163d92e233d60e01b815260040160405180910390fd5b600280546001600160a01b0319166001600160a01b0383169081179091556040519081527fd1a6a14209a385a964d036e404cb5cfb71f4000cdb03c9366292430787261be690602001610b69565b600c60205260009081526040902080546108799061294a565b611232611fe6565b6001600160a01b03811661127a5760405162461bcd60e51b815260206004820152600f60248201526e496e76616c6964206164647265737360881b6044820152606401610835565b600680546001600160a01b0319166001600160a01b0383169081179091556040519081527f617e866d00bfa15385fa403989399c5705bd2649c1aa45150cdeafb36191d25290602001610b69565b6112d0611fe6565b6040516370a0823160e01b81523060048201526000906001600160a01b038416906370a0823190602401602060405180830381865afa158015611317573d6000803e3d6000fd5b505050506040513d601f19601f8201168201806040525081019061133b9190612bd0565b60405163a9059cbb60e01b81526001600160a01b038481166004830152602482018390529192509084169063a9059cbb906044016020604051808303816000875af115801561138e573d6000803e3d6000fd5b505050506040513d601f19601f820116820180604052508101906113b29190612b51565b50505050565b6113c0611fe6565b806113de576040516381255f6d60e01b815260040160405180910390fd5b600480549082905560408051828152602081018490527f0a248db2918cf8fa426d34746253b3aa2c68513489f2b322ffac0fbae3ef912291015b60405180910390a15050565b600f546060908190819081908190806001600160401b0381111561144a5761144a6124e1565b604051908082528060200260200182016040528015611473578160200160208202803683370190505b509450806001600160401b0381111561148e5761148e6124e1565b6040519080825280602002602001820160405280156114c157816020015b60608152602001906001900390816114ac5790505b509350806001600160401b038111156114dc576114dc6124e1565b60405190808252806020026020018201604052801561150f57816020015b60608152602001906001900390816114fa5790505b509250806001600160401b0381111561152a5761152a6124e1565b60405190808252806020026020018201604052801561155d57816020015b60608152602001906001900390816115485790505b50915060005b81811015611725576000600a600f838154811061158257611582612c37565b906000526020600020016040516115999190612cbf565b9081526020016040518091039020905080600001548783815181106115c0576115c0612c37565b6020026020010181815250508060020180548060200260200160405190810160405280929190818152602001828054801561161a57602002820191906000526020600020905b815481526020019060010190808311611606575b505050505086838151811061163157611631612c37565b60200260200101819052508060010180548060200260200160405190810160405280929190818152602001828054801561168a57602002820191906000526020600020905b815481526020019060010190808311611676575b50505050508583815181106116a1576116a1612c37565b6020026020010181905250806003018054806020026020016040519081016040528092919081815260200182805480156116fa57602002820191906000526020600020905b8154815260200190600101908083116116e6575b505050505084838151811061171157611711612c37565b602090810291909101015250600101611563565b50600f8585858584805480602002602001604051908101604052809291908181526020016000905b828210156117f957838290600052602060002001805461176c9061294a565b80601f01602080910402602001604051908101604052809291908181526020018280546117989061294a565b80156117e55780601f106117ba576101008083540402835291602001916117e5565b820191906000526020600020905b8154815290600101906020018083116117c857829003601f168201915b50505050508152602001906001019061174d565b50505050945095509550955095509550509091929394565b611819611fe6565b600980546001600160a01b0319166001600160a01b0392909216919091179055565b611843611fe6565b806000036118645760405163d1974ebd60e01b815260040160405180910390fd5b600380549082905560408051828152602081018490527f2cd548d8b607f4efea7db6457654fc9e023a566e207024c02ef70ce93f68b7219101611418565b6118aa611fe6565b80516000036118cc57604051630baef95760e11b815260040160405180910390fd5b6010816040516118dc9190612984565b9081526040519081900360200190205460ff1661190c576040516304c421fb60e11b815260040160405180910390fd5b60005b600f548110156119e8578180519060200120600f828154811061193457611934612c37565b9060005260206000200160405161194b9190612cbf565b6040518091039020036119e057600f805461196890600190612b28565b8154811061197857611978612c37565b90600052602060002001600f828154811061199557611995612c37565b9060005260206000200190816119ab9190612ccb565b50600f8054806119bd576119bd612d9f565b6001900381819060005260206000200160006119d9919061234b565b90556119e8565b60010161190f565b50600a816040516119f99190612984565b9081526040519081900360200190206000808255611a1a6001830182612385565b611a28600283016000612385565b611a36600383016000612385565b5050601081604051611a489190612984565b908152604051908190036020018120805460ff191690557f40ce0fc2b2cf3eef4b2f7cfe824e7eb68d2543241b7e2b9f7f88320f0e05f9cf90610b699083906124ce565b611a94611fe6565b6001600160a01b038116611adc5760405162461bcd60e51b815260206004820152600f60248201526e496e76616c6964206164647265737360881b6044820152606401610835565b600580546001600160a01b0319166001600160a01b0383169081179091556040519081527fcc07d0b585abd117a938f6438404e39ba2df96e6a7a9c995202669910515d3c790602001610b69565b600060608060606000600a86604051611b439190612984565b90815260200160405180910390209050806000015481600201826001018360030182805480602002602001604051908101604052809291908181526020018280548015611baf57602002820191906000526020600020905b815481526020019060010190808311611b9b575b5050505050925081805480602002602001604051908101604052809291908181526020018280548015611c0157602002820191906000526020600020905b815481526020019060010190808311611bed575b5050505050915080805480602002602001604051908101604052809291908181526020018280548015611c5357602002820191906000526020600020905b815481526020019060010190808311611c3f575b505050505090509450945094509450509193509193565b611c72611fe6565b611c7b816121ff565b50565b6000838152600b6020908152604080832054600c909252822080546001600160a01b039092169291611caf9061294a565b80601f0160208091040260200160405190810160405280929190818152602001828054611cdb9061294a565b8015611d285780601f10611cfd57610100808354040283529160200191611d28565b820191906000526020600020905b815481529060010190602001808311611d0b57829003601f168201915b5050506000888152600d602052604080822054905194955093909250600a9150611d53908590612984565b9081526020016040518091039020905060005b82811015611fdc5760006064888884818110611d8457611d84612c37565b90506020020135611d959190612db5565b90506000611da684600101836122a8565b90506000846002018281548110611dbf57611dbf612c37565b906000526020600020015490506000856003018381548110611de357611de3612c37565b9060005260206000200154905081600003611e63576008546040516352056f0560e11b81526001600160a01b038b81166004830152602482018490529091169063a40ade0a90604401600060405180830381600087803b158015611e4657600080fd5b505af1158015611e5a573d6000803e3d6000fd5b50505050611f88565b81600103611f045760405163a9059cbb60e01b81526001600160a01b038a81166004830152602482018390527f0000000000000000000000000000000000000000000000000000000000000000169063a9059cbb906044016020604051808303816000875af1158015611eda573d6000803e3d6000fd5b505050506040513d601f19601f82011682018060405250810190611efe9190612b51565b50611f88565b81600203611f885760095460405163203894e560e01b81526001600160a01b038b81166004830152602482018490526001604483015260806064830152600060848301529091169063203894e59060a401600060405180830381600087803b158015611f6f57600080fd5b505af1158015611f83573d6000803e3d6000fd5b505050505b60408051838152602081018390526001600160a01b038b16917f3ab3e8ad6923a956799ae3fe031dfa1cb6a25c9743413b0c4ca812a87b02202a910160405180910390a2505060019092019150611d669050565b5050505050505050565b6000546001600160a01b031633146120395760405162461bcd60e51b815260206004820152601660248201527527b7363c9031b0b63630b1363290313c9037bbb732b960511b6044820152606401610835565b565b6000600282101561204e57506000919050565b600061205b600284612b28565b612066906002612ae7565b612071906003612dc9565b9050601481116120815780612084565b60145b9392505050565b6000806000806000856001600160a01b031663feaf968c6040518163ffffffff1660e01b815260040160a060405180830381865afa1580156120d1573d6000803e3d6000fd5b505050506040513d601f19601f820116820180604052508101906120f59190612dfb565b9450945050935093506000831361211f57604051632f38a32b60e21b815260040160405180910390fd5b610e1061212c8342612b28565b111561214b5760405163785ed96d60e11b815260040160405180910390fd5b8369ffffffffffffffffffff168169ffffffffffffffffffff16101561218457604051634e20de2f60e11b815260040160405180910390fd5b5090949350505050565b60607f92fd13387c7fe7befbc38d303d6468778fb9731bc4583f17d92989c6fcfdeaaa826040516024016121c791511515815260200190565b60408051601f198184030181529190526020810180516001600160e01b03166001600160e01b03199093169290921790915292915050565b336001600160a01b038216036122575760405162461bcd60e51b815260206004820152601760248201527f43616e6e6f74207472616e7366657220746f2073656c660000000000000000006044820152606401610835565b600180546001600160a01b0319166001600160a01b0383811691821790925560008054604051929316917fed8889f560326eb138920d842192f0eb3dd22b4f139c87a2c57538e05bae12789190a350565b6000805b83548110156122e8578381815481106122c7576122c7612c37565b90600052602060002001548310156122e05790506122fa565b6001016122ac565b5082546122f790600190612b28565b90505b92915050565b82805482825590600052602060002090810192821561233b579160200282015b8281111561233b578251825591602001919060010190612320565b5061234792915061239f565b5090565b5080546123579061294a565b6000825580601f10612367575050565b601f016020900490600052602060002090810190611c7b919061239f565b5080546000825590600052602060002090810190611c7b91905b5b8082111561234757600081556001016123a0565b6000806000604084860312156123c957600080fd5b8335925060208401356001600160401b038111156123e657600080fd5b8401601f810186136123f757600080fd5b80356001600160401b0381111561240d57600080fd5b8660208260051b840101111561242257600080fd5b939660209190910195509293505050565b6001600160a01b0381168114611c7b57600080fd5b60006020828403121561245a57600080fd5b813561208481612433565b60006020828403121561247757600080fd5b5035919050565b60005b83811015612499578181015183820152602001612481565b50506000910152565b600081518084526124ba81602086016020860161247e565b601f01601f19169290920160200192915050565b6020815260006122f760208301846124a2565b634e487b7160e01b600052604160045260246000fd5b604051601f8201601f191681016001600160401b038111828210171561251f5761251f6124e1565b604052919050565b600082601f83011261253857600080fd5b81356001600160401b03811115612551576125516124e1565b612564601f8201601f19166020016124f7565b81815284602083860101111561257957600080fd5b816020850160208301376000918101602001919091529392505050565b600082601f8301126125a757600080fd5b81356001600160401b038111156125c0576125c06124e1565b8060051b6125d0602082016124f7565b918252602081850181019290810190868411156125ec57600080fd5b6020860192505b8383101561260e5782358252602092830192909101906125f3565b9695505050505050565b600080600080600060a0868803121561263057600080fd5b85356001600160401b0381111561264657600080fd5b61265288828901612527565b9550506020860135935060408601356001600160401b0381111561267557600080fd5b61268188828901612596565b93505060608601356001600160401b0381111561269d57600080fd5b6126a988828901612596565b92505060808601356001600160401b038111156126c557600080fd5b6126d188828901612596565b9150509295509295909350565b6000602082840312156126f057600080fd5b81356001600160401b0381111561270657600080fd5b61271284828501612527565b949350505050565b60008060006060848603121561272f57600080fd5b83356001600160401b0381111561274557600080fd5b61275186828701612527565b9350506020840135915060408401356003811061276d57600080fd5b809150509250925092565b6000806040838503121561278b57600080fd5b823561279681612433565b915060208301356127a681612433565b809150509250929050565b600081518084526020840193506020830160005b828110156127e35781518652602095860195909101906001016127c5565b5093949350505050565b600082825180855260208501945060208160051b8301016020850160005b8381101561283d57601f198584030188526128278383516127b1565b602098890198909350919091019060010161280b565b50909695505050505050565b600060a0820160a0835280885180835260c08501915060c08160051b860101925060208a0160005b828110156128a25760bf1987860301845261288d8583516124a2565b94506020938401939190910190600101612871565b5050505082810360208401526128b881886127b1565b905082810360408401526128cc81876127ed565b905082810360608401526128e081866127ed565b905082810360808401526128f481856127ed565b98975050505050505050565b84815260806020820152600061291960808301866127b1565b828103604084015261292b81866127b1565b9050828103606084015261293f81856127b1565b979650505050505050565b600181811c9082168061295e57607f821691505b60208210810361297e57634e487b7160e01b600052602260045260246000fd5b50919050565b6000825161299681846020870161247e565b9190910192915050565b601f82111561084957806000526020600020601f840160051c810160208510156129c75750805b601f840160051c820191505b818110156129e757600081556001016129d3565b5050505050565b81516001600160401b03811115612a0757612a076124e1565b612a1b81612a15845461294a565b846129a0565b6020601f821160018114612a525760008315612a375750848201515b600184901b600019600386901b1c198216175b8555506129e7565b600084815260208120601f198516915b82811015612a825787850151825560209485019460019092019101612a62565b5084821015612aa05786840151600019600387901b60f8161c191681555b50505050600190811b01905550565b604081526000612ac260408301856124a2565b90508260208301529392505050565b634e487b7160e01b600052601160045260246000fd5b80820281158282048414176122fa576122fa612ad1565b634e487b7160e01b600052601260045260246000fd5b600082612b2357612b23612afe565b500490565b818103818111156122fa576122fa612ad1565b634e487b7160e01b600052602160045260246000fd5b600060208284031215612b6357600080fd5b8151801515811461208457600080fd5b60208152815160208201526020820151604082015261ffff604083015116606082015263ffffffff606083015116608082015263ffffffff60808301511660a0820152600060a083015160c08084015261271260e08401826124a2565b600060208284031215612be257600080fd5b5051919050565b608081526000612bfc60808301876124a2565b905084602083015283604083015260038310612c2857634e487b7160e01b600052602160045260246000fd5b82606083015295945050505050565b634e487b7160e01b600052603260045260246000fd5b60008154612c5a8161294a565b600182168015612c715760018114612c8657612cb6565b60ff1983168652811515820286019350612cb6565b84600052602060002060005b83811015612cae57815488820152600190910190602001612c92565b505081860193505b50505092915050565b60006122f78284612c4d565b818103612cd6575050565b612ce0825461294a565b6001600160401b03811115612cf757612cf76124e1565b612d0581612a15845461294a565b6000601f821160018114612d375760008315612a37575081850154600184901b600019600386901b1c19821617612a4a565b600085815260209020601f19841690600086815260209020845b83811015612d715782860154825560019586019590910190602001612d51565b5085831015612d8f5781850154600019600388901b60f8161c191681555b5050505050600190811b01905550565b634e487b7160e01b600052603160045260246000fd5b600082612dc457612dc4612afe565b500690565b808201808211156122fa576122fa612ad1565b805169ffffffffffffffffffff81168114612df657600080fd5b919050565b600080600080600060a08688031215612e1357600080fd5b612e1c86612ddc565b60208701516040880151606089015192975090955093509150612e4160808701612ddc565b9050929550929590935056fea26469706673582212200c3468b3eb1c466d493b37f201a2ca2dd7dd31aef53acb18daf945bae874380464736f6c634300081c0033",
  "linkReferences": {},
  "deployedLinkReferences": {}
}