{
  "_format": "hh-sol-artifact-1",
  "contractName": "LootRedeemer",
  "sourceName": "contracts/LootRedeemer.sol",
  "abi": [
    {
      "inputs": [
        {
          "internalType": "address",
          "name": "_loot",
          "type": "address"
        },
        {
          "internalType": "address",
          "name": "_rewardNFT",
          "type": "address"
        },
        {
          "internalType": "address",
          "name": "_xpModule",
          "type": "address"
        }
      ],
      "stateMutability": "nonpayable",
      "type": "constructor"
    },
    {
      "inputs": [],
      "name": "BurnFailed",
      "type": "error"
    },
    {
      "inputs": [],
      "name": "InvalidRewardTier",
      "type": "error"
    },
    {
      "inputs": [
        {
          "internalType": "address",
          "name": "owner",
          "type": "address"
        }
      ],
      "name": "OwnableInvalidOwner",
      "type": "error"
    },
    {
      "inputs": [
        {
          "internalType": "address",
          "name": "account",
          "type": "address"
        }
      ],
      "name": "OwnableUnauthorizedAccount",
      "type": "error"
    },
    {
      "inputs": [],
      "name": "TransferFromFailed",
      "type": "error"
    },
    {
      "anonymous": false,
      "inputs": [
        {
          "indexed": true,
          "internalType": "address",
          "name": "user",
          "type": "address"
        },
        {
          "indexed": false,
          "internalType": "uint256",
          "name": "tier",
          "type": "uint256"
        },
        {
          "indexed": false,
          "internalType": "enum ILootRedeemer.RewardType",
          "name": "rewardType",
          "type": "uint8"
        },
        {
          "indexed": false,
          "internalType": "uint256",
          "name": "value",
          "type": "uint256"
        }
      ],
      "name": "BurnedForReward",
      "type": "event"
    },
    {
      "anonymous": false,
      "inputs": [
        {
          "indexed": true,
          "internalType": "address",
          "name": "previousOwner",
          "type": "address"
        },
        {
          "indexed": true,
          "internalType": "address",
          "name": "newOwner",
          "type": "address"
        }
      ],
      "name": "OwnershipTransferred",
      "type": "event"
    },
    {
      "inputs": [
        {
          "internalType": "uint256",
          "name": "tier",
          "type": "uint256"
        }
      ],
      "name": "burnForReward",
      "outputs": [],
      "stateMutability": "nonpayable",
      "type": "function"
    },
    {
      "inputs": [],
      "name": "lootToken",
      "outputs": [
        {
          "internalType": "contract IERC20",
          "name": "",
          "type": "address"
        }
      ],
      "stateMutability": "view",
      "type": "function"
    },
    {
      "inputs": [],
      "name": "owner",
      "outputs": [
        {
          "internalType": "address",
          "name": "",
          "type": "address"
        }
      ],
      "stateMutability": "view",
      "type": "function"
    },
    {
      "inputs": [],
      "name": "renounceOwnership",
      "outputs": [],
      "stateMutability": "nonpayable",
      "type": "function"
    },
    {
      "inputs": [],
      "name": "rewardNFT",
      "outputs": [
        {
          "internalType": "contract RewardNFT",
          "name": "",
          "type": "address"
        }
      ],
      "stateMutability": "view",
      "type": "function"
    },
    {
      "inputs": [
        {
          "internalType": "uint256",
          "name": "",
          "type": "uint256"
        }
      ],
      "name": "rewards",
      "outputs": [
        {
          "internalType": "enum ILootRedeemer.RewardType",
          "name": "rewardType",
          "type": "uint8"
        },
        {
          "internalType": "uint256",
          "name": "lootCost",
          "type": "uint256"
        },
        {
          "internalType": "uint256",
          "name": "rewardValue",
          "type": "uint256"
        }
      ],
      "stateMutability": "view",
      "type": "function"
    },
    {
      "inputs": [
        {
          "internalType": "uint256",
          "name": "tier",
          "type": "uint256"
        },
        {
          "internalType": "enum ILootRedeemer.RewardType",
          "name": "rewardType",
          "type": "uint8"
        },
        {
          "internalType": "uint256",
          "name": "lootCost",
          "type": "uint256"
        },
        {
          "internalType": "uint256",
          "name": "rewardValue",
          "type": "uint256"
        }
      ],
      "name": "setReward",
      "outputs": [],
      "stateMutability": "nonpayable",
      "type": "function"
    },
    {
      "inputs": [
        {
          "internalType": "address",
          "name": "newOwner",
          "type": "address"
        }
      ],
      "name": "transferOwnership",
      "outputs": [],
      "stateMutability": "nonpayable",
      "type": "function"
    },
    {
      "inputs": [
        {
          "internalType": "address",
          "name": "to",
          "type": "address"
        },
        {
          "internalType": "uint256",
          "name": "amount",
          "type": "uint256"
        }
      ],
      "name": "withdrawTokens",
      "outputs": [],
      "stateMutability": "nonpayable",
      "type": "function"
    },
    {
      "inputs": [],
      "name": "xpModule",
      "outputs": [
        {
          "internalType": "contract IXPModule",
          "name": "",
          "type": "address"
        }
      ],
      "stateMutability": "view",
      "type": "function"
    }
  ],
  "bytecode": "0x608060405234801561001057600080fd5b5060405161099538038061099583398101604081905261002f9161010d565b338061005557604051631e4fbdf760e01b81526000600482015260240160405180910390fd5b61005e816100a1565b50600180546001600160a01b039485166001600160a01b031991821617909155600280549385169382169390931790925560038054919093169116179055610150565b600080546001600160a01b038381166001600160a01b0319831681178455604051919092169283917f8be0079c531659141344cd1fd0a4f28419497f9722a3daafe3b4186f6b6457e09190a35050565b80516001600160a01b038116811461010857600080fd5b919050565b60008060006060848603121561012257600080fd5b61012b846100f1565b9250610139602085016100f1565b9150610147604085016100f1565b90509250925092565b6108368061015f6000396000f3fe608060405234801561001057600080fd5b506004361061009e5760003560e01c80638da5cb5b116100665780638da5cb5b14610116578063c8ea4dd614610127578063f2fde38b1461013a578063f301af421461014d578063f460124d1461018f57600080fd5b806306b091f9146100a35780632d540ed2146100b85780633d8ade5e146100cb578063715018a6146100fb578063787b487e14610103575b600080fd5b6100b66100b13660046106bf565b6101a2565b005b6100b66100c63660046106e9565b610226565b6003546100de906001600160a01b031681565b6040516001600160a01b0390911681526020015b60405180910390f35b6100b66102a6565b6100b661011136600461072a565b6102ba565b6000546001600160a01b03166100de565b6002546100de906001600160a01b031681565b6100b6610148366004610743565b6105e3565b61018061015b36600461072a565b60046020526000908152604090208054600182015460029092015460ff909116919083565b6040516100f29392919061079d565b6001546100de906001600160a01b031681565b6101aa610626565b60015460405163a9059cbb60e01b81526001600160a01b038481166004830152602482018490529091169063a9059cbb906044016020604051808303816000875af11580156101fd573d6000803e3d6000fd5b505050506040513d601f19601f8201168201806040525081019061022191906107bc565b505050565b61022e610626565b604051806060016040528084600181111561024b5761024b610765565b815260208082018590526040918201849052600087815260049091522081518154829060ff19166001838181111561028557610285610765565b02179055506020820151600182015560409091015160029091015550505050565b6102ae610626565b6102b86000610653565b565b6000818152600460205260408082208151606081019092528054829060ff1660018111156102ea576102ea610765565b60018111156102fb576102fb610765565b8152602001600182015481526020016002820154815250509050806020015160000361033a576040516358cd4db760e11b815260040160405180910390fd5b60015460208201516040516323b872dd60e01b815233600482015230602482015260448101919091526000916001600160a01b0316906323b872dd906064016020604051808303816000875af1158015610398573d6000803e3d6000fd5b505050506040513d601f19601f820116820180604052508101906103bc91906107bc565b9050806103dc57604051631e4e7d0960e21b815260040160405180910390fd5b600154602083015160405163a9059cbb60e01b81526000600482015260248101919091526001600160a01b039091169063a9059cbb906044016020604051808303816000875af1158015610434573d6000803e3d6000fd5b505050506040513d601f19601f8201168201806040525081019061045891906107bc565b90508061047857604051631bc5aabf60e21b815260040160405180910390fd5b60008251600181111561048d5761048d610765565b0361051657600254604083810151905163203894e560e01b815233600482015260248101919091526001604482015260806064820152600060848201526001600160a01b039091169063203894e59060a401600060405180830381600087803b1580156104f957600080fd5b505af115801561050d573d6000803e3d6000fd5b5050505061059b565b60018251600181111561052b5761052b610765565b0361059b5760035460408381015190516352056f0560e11b815233600482015260248101919091526001600160a01b039091169063a40ade0a90604401600060405180830381600087803b15801561058257600080fd5b505af1158015610596573d6000803e3d6000fd5b505050505b8151604080840151905133927f6a8cba709cc0c5eeec414252f5b502c033732c019cc1dfb73e9b9e8f7bb3a3bc926105d692889291906107de565b60405180910390a2505050565b6105eb610626565b6001600160a01b03811661061a57604051631e4fbdf760e01b8152600060048201526024015b60405180910390fd5b61062381610653565b50565b6000546001600160a01b031633146102b85760405163118cdaa760e01b8152336004820152602401610611565b600080546001600160a01b038381166001600160a01b0319831681178455604051919092169283917f8be0079c531659141344cd1fd0a4f28419497f9722a3daafe3b4186f6b6457e09190a35050565b80356001600160a01b03811681146106ba57600080fd5b919050565b600080604083850312156106d257600080fd5b6106db836106a3565b946020939093013593505050565b600080600080608085870312156106ff57600080fd5b8435935060208501356002811061071557600080fd5b93969395505050506040820135916060013590565b60006020828403121561073c57600080fd5b5035919050565b60006020828403121561075557600080fd5b61075e826106a3565b9392505050565b634e487b7160e01b600052602160045260246000fd5b6002811061079957634e487b7160e01b600052602160045260246000fd5b9052565b606081016107ab828661077b565b602082019390935260400152919050565b6000602082840312156107ce57600080fd5b8151801515811461075e57600080fd5b838152606081016107f2602083018561077b565b82604083015294935050505056fea26469706673582212206ce4c41338a7a14fe8c1845bd43767c0f87f2581a7a8aa589f21952b7596926164736f6c634300081c0033",
  "linkReferences": {},
  "deployedLinkReferences": {}
}