{
  "_format": "hh-sol-artifact-1",
  "contractName": "RewardNFT",
  "sourceName": "contracts/RewardNFT.sol",
  "abi": [
    {
      "inputs": [],
      "stateMutability": "nonpayable",
      "type": "constructor"
    },
    {
      "inputs": [
        {
          "internalType": "address",
          "name": "sender",
          "type": "address"
        },
        {
          "internalType": "uint256",
          "name": "balance",
          "type": "uint256"
        },
        {
          "internalType": "uint256",
          "name": "needed",
          "type": "uint256"
        },
        {
          "internalType": "uint256",
          "name": "tokenId",
          "type": "uint256"
        }
      ],
      "name": "ERC1155InsufficientBalance",
      "type": "error"
    },
    {
      "inputs": [
        {
          "internalType": "address",
          "name": "approver",
          "type": "address"
        }
      ],
      "name": "ERC1155InvalidApprover",
      "type": "error"
    },
    {
      "inputs": [
        {
          "internalType": "uint256",
          "name": "idsLength",
          "type": "uint256"
        },
        {
          "internalType": "uint256",
          "name": "valuesLength",
          "type": "uint256"
        }
      ],
      "name": "ERC1155InvalidArrayLength",
      "type": "error"
    },
    {
      "inputs": [
        {
          "internalType": "address",
          "name": "operator",
          "type": "address"
        }
      ],
      "name": "ERC1155InvalidOperator",
      "type": "error"
    },
    {
      "inputs": [
        {
          "internalType": "address",
          "name": "receiver",
          "type": "address"
        }
      ],
      "name": "ERC1155InvalidReceiver",
      "type": "error"
    },
    {
      "inputs": [
        {
          "internalType": "address",
          "name": "sender",
          "type": "address"
        }
      ],
      "name": "ERC1155InvalidSender",
      "type": "error"
    },
    {
      "inputs": [
        {
          "internalType": "address",
          "name": "operator",
          "type": "address"
        },
        {
          "internalType": "address",
          "name": "owner",
          "type": "address"
        }
      ],
      "name": "ERC1155MissingApprovalForAll",
      "type": "error"
    },
    {
      "inputs": [],
      "name": "NotLootBox",
      "type": "error"
    },
    {
      "inputs": [
        {
          "internalType": "address",
          "name": "owner",
          "type": "address"
        }
      ],
      "name": "OwnableInvalidOwner",
      "type": "error"
    },
    {
      "inputs": [
        {
          "internalType": "address",
          "name": "account",
          "type": "address"
        }
      ],
      "name": "OwnableUnauthorizedAccount",
      "type": "error"
    },
    {
      "anonymous": false,
      "inputs": [
        {
          "indexed": true,
          "internalType": "address",
          "name": "account",
          "type": "address"
        },
        {
          "indexed": true,
          "internalType": "address",
          "name": "operator",
          "type": "address"
        },
        {
          "indexed": false,
          "internalType": "bool",
          "name": "approved",
          "type": "bool"
        }
      ],
      "name": "ApprovalForAll",
      "type": "event"
    },
    {
      "anonymous": false,
      "inputs": [
        {
          "indexed": true,
          "internalType": "address",
          "name": "previousOwner",
          "type": "address"
        },
        {
          "indexed": true,
          "internalType": "address",
          "name": "newOwner",
          "type": "address"
        }
      ],
      "name": "OwnershipTransferred",
      "type": "event"
    },
    {
      "anonymous": false,
      "inputs": [
        {
          "indexed": true,
          "internalType": "address",
          "name": "operator",
          "type": "address"
        },
        {
          "indexed": true,
          "internalType": "address",
          "name": "from",
          "type": "address"
        },
        {
          "indexed": true,
          "internalType": "address",
          "name": "to",
          "type": "address"
        },
        {
          "indexed": false,
          "internalType": "uint256[]",
          "name": "ids",
          "type": "uint256[]"
        },
        {
          "indexed": false,
          "internalType": "uint256[]",
          "name": "values",
          "type": "uint256[]"
        }
      ],
      "name": "TransferBatch",
      "type": "event"
    },
    {
      "anonymous": false,
      "inputs": [
        {
          "indexed": true,
          "internalType": "address",
          "name": "operator",
          "type": "address"
        },
        {
          "indexed": true,
          "internalType": "address",
          "name": "from",
          "type": "address"
        },
        {
          "indexed": true,
          "internalType": "address",
          "name": "to",
          "type": "address"
        },
        {
          "indexed": false,
          "internalType": "uint256",
          "name": "id",
          "type": "uint256"
        },
        {
          "indexed": false,
          "internalType": "uint256",
          "name": "value",
          "type": "uint256"
        }
      ],
      "name": "TransferSingle",
      "type": "event"
    },
    {
      "anonymous": false,
      "inputs": [
        {
          "indexed": false,
          "internalType": "string",
          "name": "value",
          "type": "string"
        },
        {
          "indexed": true,
          "internalType": "uint256",
          "name": "id",
          "type": "uint256"
        }
      ],
      "name": "URI",
      "type": "event"
    },
    {
      "inputs": [
        {
          "internalType": "address",
          "name": "account",
          "type": "address"
        },
        {
          "internalType": "uint256",
          "name": "id",
          "type": "uint256"
        }
      ],
      "name": "balanceOf",
      "outputs": [
        {
          "internalType": "uint256",
          "name": "",
          "type": "uint256"
        }
      ],
      "stateMutability": "view",
      "type": "function"
    },
    {
      "inputs": [
        {
          "internalType": "address[]",
          "name": "accounts",
          "type": "address[]"
        },
        {
          "internalType": "uint256[]",
          "name": "ids",
          "type": "uint256[]"
        }
      ],
      "name": "balanceOfBatch",
      "outputs": [
        {
          "internalType": "uint256[]",
          "name": "",
          "type": "uint256[]"
        }
      ],
      "stateMutability": "view",
      "type": "function"
    },
    {
      "inputs": [
        {
          "internalType": "address",
          "name": "account",
          "type": "address"
        },
        {
          "internalType": "address",
          "name": "operator",
          "type": "address"
        }
      ],
      "name": "isApprovedForAll",
      "outputs": [
        {
          "internalType": "bool",
          "name": "",
          "type": "bool"
        }
      ],
      "stateMutability": "view",
      "type": "function"
    },
    {
      "inputs": [],
      "name": "lootBoxContract",
      "outputs": [
        {
          "internalType": "address",
          "name": "",
          "type": "address"
        }
      ],
      "stateMutability": "view",
      "type": "function"
    },
    {
      "inputs": [
        {
          "internalType": "address",
          "name": "to",
          "type": "address"
        },
        {
          "internalType": "uint256",
          "name": "id",
          "type": "uint256"
        },
        {
          "internalType": "uint256",
          "name": "amount",
          "type": "uint256"
        },
        {
          "internalType": "bytes",
          "name": "data",
          "type": "bytes"
        }
      ],
      "name": "mintReward",
      "outputs": [],
      "stateMutability": "nonpayable",
      "type": "function"
    },
    {
      "inputs": [],
      "name": "owner",
      "outputs": [
        {
          "internalType": "address",
          "name": "",
          "type": "address"
        }
      ],
      "stateMutability": "view",
      "type": "function"
    },
    {
      "inputs": [],
      "name": "renounceOwnership",
      "outputs": [],
      "stateMutability": "nonpayable",
      "type": "function"
    },
    {
      "inputs": [
        {
          "internalType": "address",
          "name": "from",
          "type": "address"
        },
        {
          "internalType": "address",
          "name": "to",
          "type": "address"
        },
        {
          "internalType": "uint256[]",
          "name": "ids",
          "type": "uint256[]"
        },
        {
          "internalType": "uint256[]",
          "name": "values",
          "type": "uint256[]"
        },
        {
          "internalType": "bytes",
          "name": "data",
          "type": "bytes"
        }
      ],
      "name": "safeBatchTransferFrom",
      "outputs": [],
      "stateMutability": "nonpayable",
      "type": "function"
    },
    {
      "inputs": [
        {
          "internalType": "address",
          "name": "from",
          "type": "address"
        },
        {
          "internalType": "address",
          "name": "to",
          "type": "address"
        },
        {
          "internalType": "uint256",
          "name": "id",
          "type": "uint256"
        },
        {
          "internalType": "uint256",
          "name": "value",
          "type": "uint256"
        },
        {
          "internalType": "bytes",
          "name": "data",
          "type": "bytes"
        }
      ],
      "name": "safeTransferFrom",
      "outputs": [],
      "stateMutability": "nonpayable",
      "type": "function"
    },
    {
      "inputs": [
        {
          "internalType": "address",
          "name": "operator",
          "type": "address"
        },
        {
          "internalType": "bool",
          "name": "approved",
          "type": "bool"
        }
      ],
      "name": "setApprovalForAll",
      "outputs": [],
      "stateMutability": "nonpayable",
      "type": "function"
    },
    {
      "inputs": [
        {
          "internalType": "address",
          "name": "_lootBoxContract",
          "type": "address"
        }
      ],
      "name": "setLootBoxContract",
      "outputs": [],
      "stateMutability": "nonpayable",
      "type": "function"
    },
    {
      "inputs": [
        {
          "internalType": "uint256",
          "name": "id",
          "type": "uint256"
        },
        {
          "internalType": "string",
          "name": "newuri",
          "type": "string"
        }
      ],
      "name": "setTokenURI",
      "outputs": [],
      "stateMutability": "nonpayable",
      "type": "function"
    },
    {
      "inputs": [
        {
          "internalType": "bytes4",
          "name": "interfaceId",
          "type": "bytes4"
        }
      ],
      "name": "supportsInterface",
      "outputs": [
        {
          "internalType": "bool",
          "name": "",
          "type": "bool"
        }
      ],
      "stateMutability": "view",
      "type": "function"
    },
    {
      "inputs": [
        {
          "internalType": "address",
          "name": "newOwner",
          "type": "address"
        }
      ],
      "name": "transferOwnership",
      "outputs": [],
      "stateMutability": "nonpayable",
      "type": "function"
    },
    {
      "inputs": [
        {
          "internalType": "uint256",
          "name": "id",
          "type": "uint256"
        }
      ],
      "name": "uri",
      "outputs": [
        {
          "internalType": "string",
          "name": "",
          "type": "string"
        }
      ],
      "stateMutability": "view",
      "type": "function"
    }
  ],
  "bytecode": "0x60a060405260006080908152600390610018908261017f565b5034801561002557600080fd5b5060408051602081019091526000815233906100408161007e565b506001600160a01b03811661006f57604051631e4fbdf760e01b81526000600482015260240160405180910390fd5b6100788161008e565b5061023d565b600261008a828261017f565b5050565b600580546001600160a01b038381166001600160a01b0319831681179093556040519116919082907f8be0079c531659141344cd1fd0a4f28419497f9722a3daafe3b4186f6b6457e090600090a35050565b634e487b7160e01b600052604160045260246000fd5b600181811c9082168061010a57607f821691505b60208210810361012a57634e487b7160e01b600052602260045260246000fd5b50919050565b601f82111561017a57806000526020600020601f840160051c810160208510156101575750805b601f840160051c820191505b818110156101775760008155600101610163565b50505b505050565b81516001600160401b03811115610198576101986100e0565b6101ac816101a684546100f6565b84610130565b6020601f8211600181146101e057600083156101c85750848201515b600019600385901b1c1916600184901b178455610177565b600084815260208120601f198516915b8281101561021057878501518255602094850194600190920191016101f0565b508482101561022e5786840151600019600387901b60f8161c191681555b50505050600190811b01905550565b6116f38061024c6000396000f3fe608060405234801561001057600080fd5b50600436106100f35760003560e01c80634e1273f411610097578063cc8a62d511610066578063cc8a62d514610213578063e985e9c514610226578063f242432a14610239578063f2fde38b1461024c57600080fd5b80634e1273f4146101c7578063715018a6146101e75780638da5cb5b146101ef578063a22cb4651461020057600080fd5b80630e89341c116100d35780630e89341c1461016c578063162094c41461018c578063203894e5146101a15780632eb2c2d6146101b457600080fd5b80622a61b8146100f8578062fdd58e1461012857806301ffc9a714610149575b600080fd5b60065461010b906001600160a01b031681565b6040516001600160a01b0390911681526020015b60405180910390f35b61013b610136366004610e49565b61025f565b60405190815260200161011f565b61015c610157366004610e89565b610287565b604051901515815260200161011f565b61017f61017a366004610ea6565b6102d7565b60405161011f9190610f0f565b61019f61019a366004610fc3565b6102e2565b005b61019f6101af36600461103d565b6102f8565b61019f6101c236600461112d565b610335565b6101da6101d53660046111e0565b6103a1565b60405161011f91906112d9565b61019f61046d565b6005546001600160a01b031661010b565b61019f61020e3660046112ec565b610481565b61019f610221366004611328565b61048c565b61015c610234366004611343565b6104b6565b61019f610247366004611376565b6104e4565b61019f61025a366004611328565b610543565b6000818152602081815260408083206001600160a01b03861684529091529020545b92915050565b60006001600160e01b03198216636cdb3d1360e11b14806102b857506001600160e01b031982166303a24d0760e21b145b8061028157506301ffc9a760e01b6001600160e01b0319831614610281565b606061028182610581565b6102ea610661565b6102f4828261068e565b5050565b6006546001600160a01b03163314610323576040516351a62c8960e01b815260040160405180910390fd5b61032f848484846106eb565b50505050565b336001600160a01b0386168114801590610356575061035486826104b6565b155b1561038c5760405163711bec9160e11b81526001600160a01b038083166004830152871660248201526044015b60405180910390fd5b6103998686868686610748565b505050505050565b606081518351146103d25781518351604051635b05999160e01b815260048101929092526024820152604401610383565b600083516001600160401b038111156103ed576103ed610f22565b604051908082528060200260200182016040528015610416578160200160208202803683370190505b50905060005b8451811015610465576020808202860101516104409060208084028701015161025f565b828281518110610452576104526113ce565b602090810291909101015260010161041c565b509392505050565b610475610661565b61047f60006107af565b565b6102f4338383610801565b610494610661565b600680546001600160a01b0319166001600160a01b0392909216919091179055565b6001600160a01b03918216600090815260016020908152604080832093909416825291909152205460ff1690565b336001600160a01b0386168114801590610505575061050386826104b6565b155b156105365760405163711bec9160e11b81526001600160a01b03808316600483015287166024820152604401610383565b6103998686868686610897565b61054b610661565b6001600160a01b03811661057557604051631e4fbdf760e01b815260006004820152602401610383565b61057e816107af565b50565b60008181526004602052604081208054606092919061059f906113e4565b80601f01602080910402602001604051908101604052809291908181526020018280546105cb906113e4565b80156106185780601f106105ed57610100808354040283529160200191610618565b820191906000526020600020905b8154815290600101906020018083116105fb57829003601f168201915b5050505050905060008151116106365761063183610925565b61065a565b60038160405160200161064a92919061141e565b6040516020818303038152906040525b9392505050565b6005546001600160a01b0316331461047f5760405163118cdaa760e01b8152336004820152602401610383565b60008281526004602052604090206106a682826114f0565b50817f6bb7ff708619ba0610cba295a58592e0451dee2622938c8755667688daf3529b6106d2846102d7565b6040516106df9190610f0f565b60405180910390a25050565b6001600160a01b03841661071557604051632bfa23e760e11b815260006004820152602401610383565b604080516001808252602082018690528183019081526060820185905260808201909252906103996000878484876109b9565b6001600160a01b03841661077257604051632bfa23e760e11b815260006004820152602401610383565b6001600160a01b03851661079b57604051626a0d4560e21b815260006004820152602401610383565b6107a885858585856109b9565b5050505050565b600580546001600160a01b038381166001600160a01b0319831681179093556040519116919082907f8be0079c531659141344cd1fd0a4f28419497f9722a3daafe3b4186f6b6457e090600090a35050565b6001600160a01b03821661082a5760405162ced3e160e81b815260006004820152602401610383565b6001600160a01b03838116600081815260016020908152604080832094871680845294825291829020805460ff191686151590811790915591519182527f17307eab39ab6107e8899845ad3d59bd9653f200f220920489ca2b5937696c31910160405180910390a3505050565b6001600160a01b0384166108c157604051632bfa23e760e11b815260006004820152602401610383565b6001600160a01b0385166108ea57604051626a0d4560e21b815260006004820152602401610383565b6040805160018082526020820186905281830190815260608201859052608082019092529061091c87878484876109b9565b50505050505050565b606060028054610934906113e4565b80601f0160208091040260200160405190810160405280929190818152602001828054610960906113e4565b80156109ad5780601f10610982576101008083540402835291602001916109ad565b820191906000526020600020905b81548152906001019060200180831161099057829003601f168201915b50505050509050919050565b6109c585858585610a0c565b6001600160a01b038416156107a857825133906001036109fe57602084810151908401516109f7838989858589610c20565b5050610399565b610399818787878787610d44565b8051825114610a3b5781518151604051635b05999160e01b815260048101929092526024820152604401610383565b3360005b8351811015610b41576020818102858101820151908501909101516001600160a01b03881615610af2576000828152602081815260408083206001600160a01b038c16845290915290205481811015610acb576040516303dee4c560e01b81526001600160a01b038a166004820152602481018290526044810183905260648101849052608401610383565b6000838152602081815260408083206001600160a01b038d16845290915290209082900390555b6001600160a01b03871615610b37576000828152602081815260408083206001600160a01b038b16845290915281208054839290610b319084906115ae565b90915550505b5050600101610a3f565b508251600103610bc25760208301516000906020840151909150856001600160a01b0316876001600160a01b0316846001600160a01b03167fc3d58168c5ae7397731d063d5bbf3d657854427343f4c083240f7aacaa2d0f628585604051610bb3929190918252602082015260400190565b60405180910390a450506107a8565b836001600160a01b0316856001600160a01b0316826001600160a01b03167f4a39dc06d4c0dbc64b70af90fd698a233a518aa5d07e595d983b8c0526c8f7fb8686604051610c119291906115cf565b60405180910390a45050505050565b6001600160a01b0384163b156103995760405163f23a6e6160e01b81526001600160a01b0385169063f23a6e6190610c6490899089908890889088906004016115fd565b6020604051808303816000875af1925050508015610c9f575060408051601f3d908101601f19168201909252610c9c91810190611642565b60015b610d08573d808015610ccd576040519150601f19603f3d011682016040523d82523d6000602084013e610cd2565b606091505b508051600003610d0057604051632bfa23e760e11b81526001600160a01b0386166004820152602401610383565b805181602001fd5b6001600160e01b0319811663f23a6e6160e01b1461091c57604051632bfa23e760e11b81526001600160a01b0386166004820152602401610383565b6001600160a01b0384163b156103995760405163bc197c8160e01b81526001600160a01b0385169063bc197c8190610d88908990899088908890889060040161165f565b6020604051808303816000875af1925050508015610dc3575060408051601f3d908101601f19168201909252610dc091810190611642565b60015b610df1573d808015610ccd576040519150601f19603f3d011682016040523d82523d6000602084013e610cd2565b6001600160e01b0319811663bc197c8160e01b1461091c57604051632bfa23e760e11b81526001600160a01b0386166004820152602401610383565b80356001600160a01b0381168114610e4457600080fd5b919050565b60008060408385031215610e5c57600080fd5b610e6583610e2d565b946020939093013593505050565b6001600160e01b03198116811461057e57600080fd5b600060208284031215610e9b57600080fd5b813561065a81610e73565b600060208284031215610eb857600080fd5b5035919050565b60005b83811015610eda578181015183820152602001610ec2565b50506000910152565b60008151808452610efb816020860160208601610ebf565b601f01601f19169290920160200192915050565b60208152600061065a6020830184610ee3565b634e487b7160e01b600052604160045260246000fd5b604051601f8201601f191681016001600160401b0381118282101715610f6057610f60610f22565b604052919050565b6000806001600160401b03841115610f8257610f82610f22565b50601f8301601f1916602001610f9781610f38565b915050828152838383011115610fac57600080fd5b828260208301376000602084830101529392505050565b60008060408385031215610fd657600080fd5b8235915060208301356001600160401b03811115610ff357600080fd5b8301601f8101851361100457600080fd5b61101385823560208401610f68565b9150509250929050565b600082601f83011261102e57600080fd5b61065a83833560208501610f68565b6000806000806080858703121561105357600080fd5b61105c85610e2d565b9350602085013592506040850135915060608501356001600160401b0381111561108557600080fd5b6110918782880161101d565b91505092959194509250565b60006001600160401b038211156110b6576110b6610f22565b5060051b60200190565b600082601f8301126110d157600080fd5b81356110e46110df8261109d565b610f38565b8082825260208201915060208360051b86010192508583111561110657600080fd5b602085015b8381101561112357803583526020928301920161110b565b5095945050505050565b600080600080600060a0868803121561114557600080fd5b61114e86610e2d565b945061115c60208701610e2d565b935060408601356001600160401b0381111561117757600080fd5b611183888289016110c0565b93505060608601356001600160401b0381111561119f57600080fd5b6111ab888289016110c0565b92505060808601356001600160401b038111156111c757600080fd5b6111d38882890161101d565b9150509295509295909350565b600080604083850312156111f357600080fd5b82356001600160401b0381111561120957600080fd5b8301601f8101851361121a57600080fd5b80356112286110df8261109d565b8082825260208201915060208360051b85010192508783111561124a57600080fd5b6020840193505b828410156112735761126284610e2d565b825260209384019390910190611251565b945050505060208301356001600160401b0381111561129157600080fd5b611013858286016110c0565b600081518084526020840193506020830160005b828110156112cf5781518652602095860195909101906001016112b1565b5093949350505050565b60208152600061065a602083018461129d565b600080604083850312156112ff57600080fd5b61130883610e2d565b91506020830135801515811461131d57600080fd5b809150509250929050565b60006020828403121561133a57600080fd5b61065a82610e2d565b6000806040838503121561135657600080fd5b61135f83610e2d565b915061136d60208401610e2d565b90509250929050565b600080600080600060a0868803121561138e57600080fd5b61139786610e2d565b94506113a560208701610e2d565b9350604086013592506060860135915060808601356001600160401b038111156111c757600080fd5b634e487b7160e01b600052603260045260246000fd5b600181811c908216806113f857607f821691505b60208210810361141857634e487b7160e01b600052602260045260246000fd5b50919050565b600080845461142c816113e4565b600182168015611443576001811461145857611488565b60ff1983168652811515820286019350611488565b87600052602060002060005b8381101561148057815488820152600190910190602001611464565b505081860193505b505050835161149b818360208801610ebf565b01949350505050565b601f8211156114eb57806000526020600020601f840160051c810160208510156114cb5750805b601f840160051c820191505b818110156107a857600081556001016114d7565b505050565b81516001600160401b0381111561150957611509610f22565b61151d8161151784546113e4565b846114a4565b6020601f82116001811461155157600083156115395750848201515b600019600385901b1c1916600184901b1784556107a8565b600084815260208120601f198516915b828110156115815787850151825560209485019460019092019101611561565b508482101561159f5786840151600019600387901b60f8161c191681555b50505050600190811b01905550565b8082018082111561028157634e487b7160e01b600052601160045260246000fd5b6040815260006115e2604083018561129d565b82810360208401526115f4818561129d565b95945050505050565b6001600160a01b03868116825285166020820152604081018490526060810183905260a06080820181905260009061163790830184610ee3565b979650505050505050565b60006020828403121561165457600080fd5b815161065a81610e73565b6001600160a01b0386811682528516602082015260a06040820181905260009061168b9083018661129d565b828103606084015261169d818661129d565b905082810360808401526116b18185610ee3565b9897505050505050505056fea264697066735822122026aa0b32a271f68d2d85e22b712d53195cede7d31b27813458bf2e826ec61a4f64736f6c634300081c0033",
  "linkReferences": {},
  "deployedLinkReferences": {}
}