{
  "_format": "hh-sol-artifact-1",
  "contractName": "XPModule",
  "sourceName": "contracts/XPModule.sol",
  "abi": [
    {
      "inputs": [],
      "stateMutability": "nonpayable",
      "type": "constructor"
    },
    {
      "inputs": [],
      "name": "InvalidXPAmount",
      "type": "error"
    },
    {
      "inputs": [],
      "name": "NotAuthorizedLootBox",
      "type": "error"
    },
    {
      "inputs": [
        {
          "internalType": "address",
          "name": "owner",
          "type": "address"
        }
      ],
      "name": "OwnableInvalidOwner",
      "type": "error"
    },
    {
      "inputs": [
        {
          "internalType": "address",
          "name": "account",
          "type": "address"
        }
      ],
      "name": "OwnableUnauthorizedAccount",
      "type": "error"
    },
    {
      "inputs": [],
      "name": "ZeroAddressNotAllowed",
      "type": "error"
    },
    {
      "anonymous": false,
      "inputs": [
        {
          "indexed": true,
          "internalType": "address",
          "name": "user",
          "type": "address"
        },
        {
          "indexed": false,
          "internalType": "uint256",
          "name": "newLevel",
          "type": "uint256"
        }
      ],
      "name": "LevelUp",
      "type": "event"
    },
    {
      "anonymous": false,
      "inputs": [
        {
          "indexed": false,
          "internalType": "address",
          "name": "lootBox",
          "type": "address"
        }
      ],
      "name": "LootBoxUpdated",
      "type": "event"
    },
    {
      "anonymous": false,
      "inputs": [
        {
          "indexed": true,
          "internalType": "address",
          "name": "previousOwner",
          "type": "address"
        },
        {
          "indexed": true,
          "internalType": "address",
          "name": "newOwner",
          "type": "address"
        }
      ],
      "name": "OwnershipTransferred",
      "type": "event"
    },
    {
      "anonymous": false,
      "inputs": [
        {
          "indexed": true,
          "internalType": "address",
          "name": "user",
          "type": "address"
        },
        {
          "indexed": false,
          "internalType": "uint256",
          "name": "amount",
          "type": "uint256"
        },
        {
          "indexed": false,
          "internalType": "uint256",
          "name": "totalXP",
          "type": "uint256"
        }
      ],
      "name": "XPAwarded",
      "type": "event"
    },
    {
      "inputs": [
        {
          "internalType": "address",
          "name": "user",
          "type": "address"
        },
        {
          "internalType": "uint256",
          "name": "amount",
          "type": "uint256"
        }
      ],
      "name": "addXP",
      "outputs": [],
      "stateMutability": "nonpayable",
      "type": "function"
    },
    {
      "inputs": [
        {
          "internalType": "uint256",
          "name": "xp",
          "type": "uint256"
        }
      ],
      "name": "calculateLevel",
      "outputs": [
        {
          "internalType": "uint256",
          "name": "",
          "type": "uint256"
        }
      ],
      "stateMutability": "pure",
      "type": "function"
    },
    {
      "inputs": [
        {
          "internalType": "address",
          "name": "user",
          "type": "address"
        }
      ],
      "name": "getLevel",
      "outputs": [
        {
          "internalType": "uint256",
          "name": "",
          "type": "uint256"
        }
      ],
      "stateMutability": "view",
      "type": "function"
    },
    {
      "inputs": [
        {
          "internalType": "address",
          "name": "user",
          "type": "address"
        }
      ],
      "name": "getXP",
      "outputs": [
        {
          "internalType": "uint256",
          "name": "",
          "type": "uint256"
        }
      ],
      "stateMutability": "view",
      "type": "function"
    },
    {
      "inputs": [
        {
          "internalType": "address",
          "name": "",
          "type": "address"
        }
      ],
      "name": "levels",
      "outputs": [
        {
          "internalType": "uint256",
          "name": "",
          "type": "uint256"
        }
      ],
      "stateMutability": "view",
      "type": "function"
    },
    {
      "inputs": [],
      "name": "lootBoxContract",
      "outputs": [
        {
          "internalType": "address",
          "name": "",
          "type": "address"
        }
      ],
      "stateMutability": "view",
      "type": "function"
    },
    {
      "inputs": [],
      "name": "owner",
      "outputs": [
        {
          "internalType": "address",
          "name": "",
          "type": "address"
        }
      ],
      "stateMutability": "view",
      "type": "function"
    },
    {
      "inputs": [],
      "name": "renounceOwnership",
      "outputs": [],
      "stateMutability": "nonpayable",
      "type": "function"
    },
    {
      "inputs": [
        {
          "internalType": "address",
          "name": "_lootBoxContract",
          "type": "address"
        }
      ],
      "name": "setLootBoxContract",
      "outputs": [],
      "stateMutability": "nonpayable",
      "type": "function"
    },
    {
      "inputs": [
        {
          "internalType": "address",
          "name": "newOwner",
          "type": "address"
        }
      ],
      "name": "transferOwnership",
      "outputs": [],
      "stateMutability": "nonpayable",
      "type": "function"
    },
    {
      "inputs": [
        {
          "internalType": "address",
          "name": "",
          "type": "address"
        }
      ],
      "name": "xpBalances",
      "outputs": [
        {
          "internalType": "uint256",
          "name": "",
          "type": "uint256"
        }
      ],
      "stateMutability": "view",
      "type": "function"
    },
    {
      "inputs": [
        {
          "internalType": "uint256",
          "name": "level",
          "type": "uint256"
        }
      ],
      "name": "xpRequiredForLevel",
      "outputs": [
        {
          "internalType": "uint256",
          "name": "",
          "type": "uint256"
        }
      ],
      "stateMutability": "pure",
      "type": "function"
    }
  ],
  "bytecode": "0x6080604052348015600f57600080fd5b503380603557604051631e4fbdf760e01b81526000600482015260240160405180910390fd5b603c816041565b506091565b600080546001600160a01b038381166001600160a01b0319831681178455604051919092169283917f8be0079c531659141344cd1fd0a4f28419497f9722a3daafe3b4186f6b6457e09190a35050565b610613806100a06000396000f3fe608060405234801561001057600080fd5b50600436106100b35760003560e01c8063817c896611610071578063817c89661461017c5780638da5cb5b146101a5578063a40ade0a146101b6578063cc8a62d5146101c9578063dce3dc1f146101dc578063f2fde38b146101ef57600080fd5b80622a61b8146100b8578063240601de146100e857806329f1eba31461010957806347082db314610129578063639487f414610149578063715018a614610172575b600080fd5b6001546100cb906001600160a01b031681565b6040516001600160a01b0390911681526020015b60405180910390f35b6100fb6100f6366004610503565b610202565b6040519081526020016100df565b6100fb610117366004610538565b60026020526000908152604090205481565b6100fb610137366004610538565b60036020526000908152604090205481565b6100fb610157366004610538565b6001600160a01b031660009081526002602052604090205490565b61017a61021f565b005b6100fb61018a366004610538565b6001600160a01b031660009081526003602052604090205490565b6000546001600160a01b03166100cb565b61017a6101c436600461055a565b610233565b61017a6101d7366004610538565b610396565b6100fb6101ea366004610503565b610419565b61017a6101fd366004610538565b610443565b600061020e828061059a565b61021990606461059a565b92915050565b610227610486565b61023160006104b3565b565b6001546001600160a01b0316331461025e5760405163227ac35160e21b815260040160405180910390fd5b806000036102825760405160016231376760e21b0319815260040160405180910390fd5b6001600160a01b038216600090815260026020526040812080548392906102aa9084906105b1565b90915550506001600160a01b038216600081815260026020908152604091829020548251858152918201527fa4388a35521832338eba24615b8d15426b43066b7d218a23bce1b449729bf020910160405180910390a26001600160a01b038216600090815260036020908152604080832054600290925282205490919061033090610419565b905081811115610390576001600160a01b03841660008181526003602052604090819020839055517f91e51c29e7e87a74ad3b8ccba98538970f50a4309242735467f41e27c6b0fbac906103879084815260200190565b60405180910390a25b50505050565b61039e610486565b6001600160a01b0381166103c5576040516342bcdf7f60e11b815260040160405180910390fd5b600180546001600160a01b0319166001600160a01b0383169081179091556040519081527fc59da12114f84bcd3dfa18e261d4a0adc757ffe6544b018701c408445d713af99060200160405180910390a150565b6000805b61042b6100f68260016105b1565b8310610219578061043b816105c4565b91505061041d565b61044b610486565b6001600160a01b03811661047a57604051631e4fbdf760e01b8152600060048201526024015b60405180910390fd5b610483816104b3565b50565b6000546001600160a01b031633146102315760405163118cdaa760e01b8152336004820152602401610471565b600080546001600160a01b038381166001600160a01b0319831681178455604051919092169283917f8be0079c531659141344cd1fd0a4f28419497f9722a3daafe3b4186f6b6457e09190a35050565b60006020828403121561051557600080fd5b5035919050565b80356001600160a01b038116811461053357600080fd5b919050565b60006020828403121561054a57600080fd5b6105538261051c565b9392505050565b6000806040838503121561056d57600080fd5b6105768361051c565b946020939093013593505050565b634e487b7160e01b600052601160045260246000fd5b808202811582820484141761021957610219610584565b8082018082111561021957610219610584565b6000600182016105d6576105d6610584565b506001019056fea2646970667358221220fb6d5710840766360162a78872b121baf1a5a0889db37e384023ad8f6603f10e64736f6c634300081c0033",
  "linkReferences": {},
  "deployedLinkReferences": {}
}